:020000040800F2
:1000000000BC012031AB0008EDA50008EFA50008F9
:10001000F1A50008F3A50008F5A500080000000000
:10002000000000000000000000000000F7A500082C
:10003000F9A50008000000009D120020FBA50008A3
:1000400081AB000881AB000881AB000881AB0008E0
:1000500081AB000881AB000881AB000881AB0008D0
:1000600081AB000881AB000881AB000881AB0008C0
:1000700081AB000881AB000881AB000881AB0008B0
:1000800081AB000881AB000881AB000881AB0008A0
:1000900081AB000881AB000881AB000881AB000890
:1000A00081AB000881AB000881AB000881AB000880
:1000B00081AB0008571200206912002081AB0008B4
:1000C00081AB000881AB000881AB000881AB000860
:1000D00081AB000881AB000881AB000881AB000850
:1000E00081AB000881AB000881AB000881AB000840
:1000F00081AB000881AB000881AB000881AB000830
:1001000081AB000809A6000881AB000881AB00089C
:1001100081AB000881AB000881AB000881AB00080F
:1001200081AB000881AB000881AB000881AB0008FF
:1001300081AB000881AB000881AB000881AB0008EF
:1001400081AB000881AB000881AB000819A600084C
:1001500081AB000881AB000881AB000881AB0008CF
:1001600081AB000881AB000881AB000881AB0008BF
:1001700081AB000881AB000881AB000800000000E3
:0801800081AB000881AB00080F
:1001C00010B5054C237833B9044B13B10448AFF391
:1001D00000800123237010BDE01200200000000009
:1001E000EC1E010808B5034B1BB103490348AFF3EC
:1001F000008008BD00000000E4120020EC1E010891
:1002000081F0004102E000BF83F0004330B54FEAC7
:1002100041044FEA430594EA050F08BF90EA020F34
:100220001FBF54EA000C55EA020C7FEA645C7FEAC7
:10023000655C00F0E2804FEA5454D4EB5555B8BFEA
:100240006D420CDD2C4480EA020281EA030382EA5B
:10025000000083EA010180EA020281EA0303362DED
:1002600088BF30BD11F0004F4FEA01314FF4801CC0
:100270004CEA113102D0404261EB410113F0004FD2
:100280004FEA03334CEA133302D0524263EB430389
:1002900094EA050F00F0A780A4F10104D5F1200E27
:1002A0000DDB02FA0EFC22FA05F2801841F1000182
:1002B00003FA0EF2801843FA05F359410EE0A5F156
:1002C00020050EF1200E012A03FA0EFC28BF4CF087
:1002D000020C43FA05F3C01851EBE37101F000453D
:1002E00007D54FF0000EDCF1000C7EEB00006EEB4A
:1002F0000101B1F5801F1BD3B1F5001F0CD34908D4
:100300005FEA30004FEA3C0C04F101044FEA44522A
:1003100012F5800F80F09A80BCF1004F08BF5FEAB1
:10032000500C50F1000041EB045141EA050130BD91
:100330005FEA4C0C404141EB010111F4801FA4F134
:100340000104E9D191F0000F04BF01460020B1FA89
:1003500081F308BF2033A3F10B03B3F120020CDAC1
:100360000C3208DD02F1140CC2F10C0201FA0CF09F
:1003700021FA02F10CE002F11402D8BFC2F1200C04
:1003800001FA02F120FA0CFCDCBF41EA0C019040BA
:10039000E41AA2BF01EB0451294330BD6FEA040403
:1003A0001F3C1CDA0C340EDC04F11404C4F12002EE
:1003B00020FA04F001FA02F340EA030021FA04F300
:1003C00045EA030130BDC4F10C04C4F1200220FA57
:1003D00002F001FA04F340EA0300294630BD21FA95
:1003E00004F0294630BD94F0000F83F4801306BF5B
:1003F00081F480110134013D4EE77FEA645C18BF4F
:100400007FEA655C29D094EA050F08BF90EA020FE5
:1004100005D054EA000C04BF1946104630BD91EADD
:10042000030F1EBF0021002030BD5FEA545C05D1E0
:100430004000494128BF41F0004130BD14F580041F
:100440003CBF01F5801130BD01F0004545F0FE4193
:1004500041F470014FF0000030BD7FEA645C1ABFC8
:10046000194610467FEA655C1CBF0B46024650EAFF
:10047000013406BF52EA033591EA030F41F400212B
:1004800030BD00BF90F0000F04BF0021704730B5B1
:100490004FF4806404F132044FF000054FF0000186
:1004A00050E700BF90F0000F04BF0021704730B547
:1004B0004FF4806404F1320410F0004548BF40421C
:1004C0004FF000013EE700BF42004FEAE2014FEA71
:1004D00031014FEA02701FBF12F07F4393F07F4F4C
:1004E00081F06051704732F07F4208BF704793F04F
:1004F0007F4F04BF41F40021704730B54FF4607462
:1005000001F0004521F000411CE700BF50EA010264
:1005100008BF704730B54FF000050AE050EA01020D
:1005200008BF704730B511F0004502D5404261EB7D
:1005300041014FF4806404F132045FEA915C3FF4BE
:10054000D8AE4FF003025FEADC0C18BF03325FEA5B
:10055000DC0C18BF033202EBDC02C2F1200300FA0C
:1005600003FC20FA02F001FA03FE40EA0E0021FA31
:1005700002F11444BDE600BF4FF0FF3C06E000BFAF
:100580004FF0010C02E000BF4FF0010C4DF804CD1C
:100590004FEA410C7FEA6C5C4FEA430C18BF7FEADC
:1005A0006C5C1BD001B050EA410C0CBF52EA430C0A
:1005B00091EA030F02BF90EA020F0020704710F18A
:1005C000000F91EA030F58BF994208BF90422CBF19
:1005D000D8176FEAE37040F0010070474FEA410C12
:1005E0007FEA6C5C02D150EA013C07D14FEA430C30
:1005F0007FEA6C5CD6D152EA033CD3D05DF8040BA1
:10060000704700BF8446104662468C4619466346D2
:1006100000E000BF01B5FFF7B7FF002848BF10F1A9
:10062000000F01BD4DF808EDFFF7F4FF0CBF0120EE
:1006300000205DF808FB00BF4DF808EDFFF7EAFF6A
:1006400034BF012000205DF808FB00BF4DF808ED25
:10065000FFF7E0FF94BF012000205DF808FB00BF1A
:100660004DF808EDFFF7CEFF94BF012000205DF8A4
:1006700008FB00BF4DF808EDFFF7C4FF34BF0120B1
:1006800000205DF808FB00BF53B94AB9002908BF34
:1006900000281CBF4FF0FF314FF0FF3000F072B95F
:1006A000ADF1080C6DE904CE00F006F8DDF804E0C9
:1006B000DDE9022304B070472DE9F047089E0446A7
:1006C0008846002B4BD18A42154667D9B2FA82F28E
:1006D0004AB1C2F1200701FA02F320FA07F7954068
:1006E00047EA030894404FEA154E230CB8FBFEF787
:1006F0001FFA85FC0EFB178843EA084307FB0CF141
:10070000994209D9EB1807F1FF3080F01B8199421B
:1007100040F21881023F2B445B1AA4B2B3FBFEF0F7
:100720000EFB103344EA034400FB0CFCA44509D93A
:100730002C1900F1FF3380F00781A44540F20481B9
:1007400002382C4440EA0740A4EB0C0400271EB1F9
:10075000D4400023C6E900433946BDE8F0878B4208
:1007600009D9002E00F0EB800027C6E900013846C9
:100770003946BDE8F087B3FA83F7002F47D18B42A3
:1007800002D3824200F2FA80841A61EB0303012053
:100790009846002EE0D0C6E90048DDE702B9FFDE4A
:1007A000B2FA82F2002A40F08F80491B4FEA154EC0
:1007B0001FFA85F80127B1FBFEFC230C0EFB1C1170
:1007C00043EA014308FB0CF1994207D9EB180CF1FD
:1007D000FF3002D2994200F2CD808446591AA3B26A
:1007E000B1FBFEF00EFB101443EA044408FB00F8D2
:1007F000A04507D92C1900F1FF3302D2A04500F221
:10080000B6801846A4EB080440EA0C409FE7C7F105
:10081000200CBB4022FA0CFE4EEA030E01FA07F44C
:1008200020FA0CF521FA0CF34FEA1E482543B3FBDE
:10083000F8F92C0C08FB19331FFA8EFA44EA03432B
:1008400009FB0AF49C4202FA07F200FA07F10BD9FD
:100850001EEB030309F1FF3080F087809C4240F2D9
:100860008480A9F1020973441B1BADB2B3FBF8F0FD
:1008700008FB103345EA034400FB0AFAA24508D9F5
:100880001EEB040400F1FF336BD2A24569D9023894
:10089000744440EA0940A0FB0289A4EB0A044C45D9
:1008A000C2464B4654D351D0002E69D0B1EB0A0555
:1008B00064EB030404FA0CFCFD40FC404CEA050523
:1008C000C6E90054002747E7C2F1200320FA03F7E6
:1008D000954001FA02F021FA03F34FEA154E38432E
:1008E000010CB3FBFEF71FFA85F80EFB173341EA44
:1008F000034107FB08F38B4204FA02F407D9691895
:1009000007F1FF3C2FD28B422DD9023F2944CB1A4D
:1009100081B2B3FBFEF00EFB103341EA034100FB52
:1009200008F38B4207D9691800F1FF3C17D28B42BC
:1009300015D902382944C91A40EA07473BE7374628
:10094000304609E70746E7E61846FBE64145ABD2E5
:10095000B8EB020A69EB0E0201381346A4E76046C1
:10096000E9E7184695E76746D1E781467CE7023814
:100970002C4447E7ACF1020C2B442FE7384608E73C
:100980003746E9E6704700BF844641EA000313F0AA
:1009900003036DD1403A41D351F8043B40F8043B86
:1009A00051F8043B40F8043B51F8043B40F8043B49
:1009B00051F8043B40F8043B51F8043B40F8043B39
:1009C00051F8043B40F8043B51F8043B40F8043B29
:1009D00051F8043B40F8043B51F8043B40F8043B19
:1009E00051F8043B40F8043B51F8043B40F8043B09
:1009F00051F8043B40F8043B51F8043B40F8043BF9
:100A000051F8043B40F8043B51F8043B40F8043BE8
:100A100051F8043B40F8043B403ABDD2303211D388
:100A200051F8043B40F8043B51F8043B40F8043BC8
:100A300051F8043B40F8043B51F8043B40F8043BB8
:100A4000103AEDD20C3205D351F8043B40F8043B88
:100A5000043AF9D2043208D0D2071CBF11F8013B86
:100A600000F8013B01D30B8803806046704700BF4C
:100A7000082A13D38B078DD010F003038AD0C3F15B
:100A80000403D21ADB071CBF11F8013B00F8013B3D
:100A900080D331F8023B20F8023B7BE7043AD9D3FC
:100AA000013A11F8013B00F8013BF9D20B780370D1
:100AB0004B7843708B78837060467047000000006D
:100AC00090F800F06DE9024520F007016FF0000C8E
:100AD00010F0070491F820F040F049804FF0000436
:100AE0006FF00700D1E9002391F840F000F1080011
:100AF00082FA4CF2A4FA8CF283FA4CF3A2FA8CF349
:100B00004BBBD1E9022382FA4CF200F10800A4FAAF
:100B10008CF283FA4CF3A2FA8CF3E3B9D1E9042303
:100B200082FA4CF200F10800A4FA8CF283FA4CF33A
:100B3000A2FA8CF37BB9D1E9062301F1200182FAF4
:100B40004CF200F10800A4FA8CF283FA4CF3A2FAFA
:100B50008CF3002BC6D0002A04BF04301A4612BA08
:100B6000B2FA82F2FDE8024500EBD2007047D1E90B
:100B7000002304F00305C4F100004FEAC50514F09A
:100B8000040F91F840F00CFA05F562EA05021CBF6B
:100B900063EA050362464FF00004A9E70000000085
:100BA00001F0FF01102A2BDB10F0070F08D010F81E
:100BB000013B013A8B422DD010F0070F42B3F6D122
:100BC000F0B441EA012141EA014122F007047FF03B
:100BD00000070023F0E80256083C85EA010586EA92
:100BE000010685FA47F5A3FA87F586FA47F6A5FACE
:100BF00087F68EB9EED1F0BC01F0FF0102F00702DA
:100C000032B110F8013B013A83EA010313B1F8D184
:100C10000020704701387047002D06BF3546033865
:100C2000073815F0010F07D1013015F4807F02BF9E
:100C3000013015F4C03F0130F0BC0138704700BFEF
:100C400070B54FF0FF0C4CF4E06C1CEA11541DBF62
:100C50001CEA135594EA0C0F95EA0C0F00F0DEF82D
:100C60002C4481EA030621EA4C5123EA4C5350EA12
:100C7000013518BF52EA033541F4801143F4801363
:100C800038D0A0FB02CE4FF00005E1FB02E506F0F4
:100C90000042E0FB03E54FF00006E1FB03569CF049
:100CA000000F18BF4EF0010EA4F1FF04B6F5007F4F
:100CB00064F5407404D25FEA4E0E6D4146EB0606C1
:100CC00042EAC62141EA55514FEAC52040EA5E504A
:100CD0004FEACE2EB4F1FD0C88BFBCF5E06F1ED8F4
:100CE000BEF1004F08BF5FEA500E50F1000041EB2B
:100CF000045170BD06F0004646EA010140EA0200D8
:100D000081EA0301B4EB5C04C2BFD4EB0C0541EAF9
:100D1000045170BD41F480114FF0000E013C00F30E
:100D2000AB8014F1360FDEBF002001F0004170BD32
:100D3000C4F10004203C35DA0C341BDC04F114044B
:100D4000C4F1200500FA05F320FA04F001FA05F2D7
:100D500040EA020001F0004221F0004110EBD370A4
:100D600021FA04F642EB06015EEA430E08BF20EAD0
:100D7000D37070BDC4F10C04C4F1200500FA04F373
:100D800020FA05F001FA04F240EA020001F0004105
:100D900010EBD37041F100015EEA430E08BF20EA78
:100DA000D37070BDC4F1200500FA05F24EEA020EC0
:100DB00020FA04F301FA05F243EA020321FA04F0EF
:100DC00001F0004121FA04F220EA020000EBD370A6
:100DD0005EEA430E08BF20EAD37070BD94F0000FA6
:100DE0000FD101F00046400041EB010111F4801FDA
:100DF00008BF013CF7D041EA060195F0000F18BF8B
:100E0000704703F00046520043EB030313F4801FC6
:100E100008BF013DF7D043EA0603704794EA0C0F80
:100E20000CEA135518BF95EA0C0F0CD050EA410696
:100E300018BF52EA4306D1D181EA030101F0004113
:100E40004FF0000070BD50EA410606BF104619463B
:100E500052EA430619D094EA0C0F02D150EA013647
:100E600013D195EA0C0F05D152EA03361CBF104688
:100E700019460AD181EA030101F0004141F0FE4127
:100E800041F470014FF0000070BD41F0FE4141F4AB
:100E9000780170BD70B54FF0FF0C4CF4E06C1CEAAB
:100EA00011541DBF1CEA135594EA0C0F95EA0C0F60
:100EB00000F0A7F8A4EB050481EA030E52EA03351B
:100EC0004FEA013100F088804FEA03334FF080553C
:100ED00045EA131343EA12634FEA022245EA111569
:100EE00045EA10654FEA00260EF000419D4208BF1A
:100EF000964244F1FD0404F5407402D25B084FEAC7
:100F00003202B61A65EB03055B084FEA32024FF472
:100F100080104FF4002CB6EB020E75EB030E22BFCF
:100F2000B61A754640EA0C005B084FEA3202B6EB8F
:100F3000020E75EB030E22BFB61A754640EA5C003E
:100F40005B084FEA3202B6EB020E75EB030E22BFCE
:100F5000B61A754640EA9C005B084FEA3202B6EBCF
:100F6000020E75EB030E22BFB61A754640EADC008E
:100F700055EA060E18D04FEA051545EA16754FEAF0
:100F800006164FEAC30343EA52734FEAC2025FEA0E
:100F90001C1CC0D111F4801F0BD141EA00014FF09D
:100FA00000004FF0004CB6E711F4801F04BF01436E
:100FB0000020B4F1FD0C88BFBCF5E06F3FF6AFAE8A
:100FC000B5EB030C04BFB6EB020C5FEA500C50F11A
:100FD000000041EB045170BD0EF0004E4EEA11319D
:100FE00014EB5C04C2BFD4EB0C0541EA045170BDA4
:100FF00041F480114FF0000E013C90E645EA060EE8
:101000008DE60CEA135594EA0C0F08BF95EA0C0F15
:101010003FF43BAF94EA0C0F0AD150EA01347FF45D
:1010200034AF95EA0C0F7FF425AF104619462CE734
:1010300095EA0C0F06D152EA03353FF4FDAE104697
:10104000194622E750EA410618BF52EA43067FF4E8
:10105000C5AE50EA41047FF40DAF52EA43057FF478
:10106000EBAE12E74FEA410C7FEA6C5C02D150EA2A
:10107000013C0AD14FEA430C7FEA6C5C02D152EA90
:10108000033C02D14FF0000070474FF00100704761
:101090004FEA410212F5001215D211D56FF47873A0
:1010A000B3EB625212D94FEAC12343F0004343EA43
:1010B000505311F0004F23FA02F018BF404270471E
:1010C0004FF00000704750EA013005D111F00040A8
:1010D00008BF6FF0004070474FF00000704700BF3E
:1010E0004A0011D212F5001211D20DD56FF47873A7
:1010F000B3EB62520ED44FEAC12343F0004343EAFC
:10110000505323FA02F070474FF00000704750EA46
:10111000013002D14FF0FF3070474FF000007047B0
:101120004FEA4102B2F1E04324BFB3F5001CDCF109
:10113000FE5C0DD901F0004C4FEAC0024CEA507041
:10114000B2F1004F40EB830008BF20F00100704770
:1011500011F0804F21D113F13872BCBF01F0004073
:10116000704741F480114FEA5252C2F11802C2F1A5
:10117000200C10FA0CF320FA02F018BF40F0010026
:101180004FEAC1234FEAD32303FA0CFC40EA0C00D8
:1011900023FA02F34FEA4303CCE77FEA625307D115
:1011A00050EA01331EBF4FF0FE4040F4400070474C
:1011B00001F0004040F0FE4040F40000704700BFE6
:1011C00010B504460E4B18784FF47A73B3FBF0F366
:1011D0000C4A1068B0FBF3F000F0A8F868B90F2CC7
:1011E00001D901200AE0002221464FF0FF3000F033
:1011F0005DF8034B5C60002000E0012010BD00BFE3
:10120000040000202001002008B50B4B1A6842F4AE
:1012100000721A601A6842F480621A601A6842F416
:1012200080721A60032000F02FF80120FFF7C8FF3A
:1012300009F046F9002008BD003C0240034A11684D
:10124000034B1B780B441360704700BF1CE9002060
:1012500004000020014B1868704700BF1CE9002003
:1012600038B50446FFF7F6FF0546B4F1FF3F02D05C
:10127000044B1B781C44FFF7EDFF401BA042FAD340
:1012800038BD00BF04000020074AD36823F4E063A0
:101290001B041B0C000200F4E060184340F0BF6028
:1012A00040F40030D060704700ED00E030B4174BE0
:1012B000DB68C3F30223C3F10704042C28BF042412
:1012C0001D1D062D18D9033B4FF0FF3505FA04F418
:1012D00021EA0401994005FA03F322EA03031943C2
:1012E00000280BDB0901C9B200F1604000F5614044
:1012F00080F8001330BC70470023E5E700F00F00D2
:101300000901C9B2024B1954F4E700BF00ED00E037
:1013100014ED00E000F01F02400901239340024A4F
:1013200042F82030704700BF00E100E00138B0F122
:10133000807F0AD2064B5860064AF02182F82310BB
:101340000020986007221A6070470120704700BF94
:1013500010E000E000ED00E0042805D0054A136825
:1013600023F0040313607047024A136843F0040338
:101370001360704710E000E0704708B5FFF7FCFF0E
:1013800008BD90F83530DBB2022B03D080234365D3
:1013900001207047052380F835300268136823F078
:1013A000010313600020704700230F2B00F2D78049
:1013B000F0B482B039E0072200E00022B2403A43A4
:1013C0000234674E46F82420664A1468EA4302EA6B
:1013D00004064F6817F4803F01D045EA0406614CCB
:1013E0002660646802EA04064F6817F4003F01D0E3
:1013F00045EA04065B4C6660A46802EA04064F688E
:1014000017F4801F01D045EA0406564CA660E46834
:1014100022404E6816F4001F01D045EA0402514CE8
:10142000E26001330F2B00F2978001229A400C6892
:1014300004EA0205AA42F4D14C68022C01D0122C15
:1014400010D1DE08083650F826C003F00704A700C4
:101450000F24BC402CEA040C0C69BC4044EA0C0488
:1014600040F8264004685F000326BE40F64306EAC3
:10147000040C4C6804F00304BC4044EA0C0404600F
:101480004C6804F1FF3CBCF1010F03D9112C01D0D1
:10149000122C10D1846806EA040CCC68BC4044EAE3
:1014A0000C048460446824EA02024C68C4F300140B
:1014B0009C4014434460C26816408A68BA40324374
:1014C000C2604A6812F0805FABD000220192264AC7
:1014D000546C44F480445464526C02F4804201928F
:1014E000019A9C08A61C1E4A52F8267003F00302BB
:1014F00096000F22B24027EA02071C4A90423FF4AE
:101500005CAF02F5806290421AD002F58062904290
:1015100018D002F58062904216D002F580629042A7
:1015200014D002F58062904212D002F5806290429F
:1015300010D002F5806290423FF43DAF08223DE7B3
:1015400001223BE7022239E7032237E7042235E78D
:10155000052233E7062231E702B0F0BC704770473E
:1015600000380140003C01400038024000000240C9
:101570002DE9F04383B007460D46D0F80080CA003D
:10158000521A93000344DE6C1A6DB61A1B6C9E420D
:1015900000D91E4606F103094FEA990915E006F144
:1015A00003094FEA9909EB005B1B9C003C44616C0A
:1015B0003B7C0093B3B2EAB2404603F0CFF8636CD1
:1015C00033446364236D33442365414608EB45137C
:1015D00003F510639B699BB24B4512D9EA00521B7D
:1015E00093003B441A6DDB6C9A420AD24BB19E1AAF
:1015F000C5EBC50293003B441B6C9E42CFD91E46EF
:10160000CDE73EB90123AB40D1F8345825EA0305B4
:10161000C1F83458002003B0BDE8F08300286BD037
:10162000F0B58BB00446032380F8B93309F0B4F861
:10163000206802F0DEFC254655F8107B6E460FCD83
:101640000FC60FCD0FC695E8030086E80300231DE3
:101650000ECB384602F089FC0021206802F0CFFC56
:10166000002210E0D100891A8B002344012183F865
:10167000391083F83820DA87002183F83B10196489
:101680005964D96401320E2AECD9002218E0D10045
:10169000891A8B002344002183F8F91183F8F8217B
:1016A000DA8783F8FB11C3F80012C3F80412C3F8F9
:1016B0000C12236802F1400003EB800359600132F1
:1016C0000E2AE4D9254655F8107B6E460FCD0FC67D
:1016D0000FCD0FC695E8030086E80300231D0ECB4F
:1016E000384602F0A3FC012384F8B933206803F0E4
:1016F000E0F800200BB0F0BD0120704790F8B8333F
:10170000012B0ED010B50446012380F8B8330068D1
:1017100003F0C3F8206802F066FC002084F8B803E8
:1017200010BD0220704700002DE9F047044605680F
:10173000284603F0F9F808B1BDE8F08706462068AE
:1017400003F0C3F80028F7D0206803F0BEF810F0CB
:10175000020F04D02268536903F00203536120682A
:1017600003F0B3F810F4002F75D13746206803F06A
:10177000ACF810F4802F40F0D280206803F0A5F878
:101780000028C0F23E81206803F09FF810F4006F3B
:101790000AD0D5F8083813F0010F40F041812268D3
:1017A000536903F400635361206803F08EF810F46A
:1017B000805F40F03981206803F087F810F4005F03
:1017C00040F08281206803F080F810F0100F14D0F0
:1017D0002268936923F0100393612E6A06F00F08C4
:1017E000C6F34343022B00F00382062B00F0218254
:1017F0002268936943F010039361206803F065F851
:1018000010F0080F40F02982206803F05EF810F411
:10181000801F40F02B82206803F057F810F4001F5F
:1018200040F02E82206803F050F810F0804F40F016
:101830003182206803F049F810F0040F3FF47CAFC8
:1018400023685D6815F0040F40F02D82226853680C
:101850002B43536070E7206803F03BF8804637461F
:1018600021E0F900C91B8A002244D2F800121B694A
:10187000C3F31203C91AC2F81012D2F80012D2F838
:1018800004320B44C2F8043228E019F0080F3DD1AD
:1018900019F0100F04D005EB47131022C3F8082BE2
:1018A00001374FEA5808B8F1000F3FF45FAF18F066
:1018B000010FF5D05FFA87FA5146206803F019F856
:1018C000814610F0010FE0D005EB47130122C3F869
:1018D000082B03F530632269012AC2D05146204605
:1018E00008F096FF2369012BCFD1002FCDD1C7EB94
:1018F000C70293002344D3F80C32002BC5D104F562
:101900006F720121206803F02FF8BEE7204608F02F
:1019100077FF05EB47130822C3F8082BB8E72068C8
:1019200002F0DFFF804637462EE0FA00D21B93001C
:101930002344196C5A6C0A445A6446E019F0080FA3
:1019400004D005EB47130822C3F8082919F0100F3B
:1019500004D005EB47131022C3F8082919F0400FF3
:1019600004D005EB47134022C3F8082919F0020FF1
:1019700004D005EB47130222C3F8082919F0800FA1
:101980003AD101374FEA5808B8F1000F3FF4F5AEED
:1019900018F0010FF5D05FFA87FA5146206802F07F
:1019A000B1FF814610F0010FC8D0012202FA07F002
:1019B000D5F8343823EA0003C5F8343805EB47136B
:1019C000C3F8082923699342AFD05146204608F056
:1019D0002BFF2369012BB1D1002FAFD1C7EBC70279
:1019E00093002344DB6C002BA8D104F56F72012116
:1019F000206802F0B9FFA1E739462046FFF7B8FD9D
:101A0000BFE7D5F8043823F00103C5F804382046B1
:101A100008F044FF2268536903F000435361B2E6C3
:101A2000204608F023FFBAE6A94605F50068D8F875
:101A3000043023F00103C8F804301021206802F0BC
:101A40009DFB07E009EB4613FF22C3F80829C3F802
:101A5000082B01366368B342F4D84FF0FF33C8F85F
:101A60001830D8F81C3043F00113C8F81C30236B31
:101A7000EBB1D8F8843043F00B03C8F88430D8F8C1
:101A8000443043F00B03C8F84430D5F8003823F451
:101A9000FE63C5F8003804F56F72217C206802F0FF
:101AA00063FF2268536903F48053536183E6D8F8D7
:101AB000143043F00B03C8F81430D8F8103043F05A
:101AC0000B03C8F81030E0E7206802F031FF22680D
:101AD000D36823F47053D360206802F07CFB90B984
:101AE0000023E3604FF4007363612268D36843F41A
:101AF0001053D360204608F0A8FE2268536903F40F
:101B0000005353615EE60323E3604023636100F00A
:101B100027FD674B0344674A934205D82268D36880
:101B200043F47053D360E5E7634B0344634A934245
:101B300005D82268D36843F46053D360DAE7A0F590
:101B40007403A3F510535E4A934205D82268D36804
:101B500043F45053D360CDE7A0F18373A3F5E7437B
:101B6000584A934205D82268D36843F44053D3605F
:101B7000C0E7554B0344554A934205D82268D368C1
:101B800043F43053D360B5E7514B0344514A934279
:101B900005D82268D36843F42053D360AAE74E4B9C
:101BA00003444E4A934205D82268D36843F4105345
:101BB000D3609FE7A0F1B773A3F55853484A934207
:101BC00005D82268D36843F40053D36092E7454BAD
:101BD0000344454A934205D82268D36843F4E0534E
:101BE000D36087E72268D36843F4C053D36081E7AA
:101BF00047F6F0731E423FF4FBAD36094FEAC80AC0
:101C0000AAEB08034FEA8309A144C6F30A02D9F8F4
:101C10000412284602F0B6FDC6F30A06D9F80432CB
:101C20003344C9F80432D9F810321E44C9F810629E
:101C3000DEE5082204F56F71284602F0A3FDC6F325
:101C40000A164FEAC803A3EB08018A002244D2F81F
:101C500010321E44C2F81062CAE5204608F0EFFDBB
:101C60002268536903F008035361CDE5F9B22046B9
:101C700008F020FE2268536903F480135361CAE51B
:101C8000F9B2204608F010FE2268536903F40013ED
:101C90005361C7E5204608F013FE2268536903F03C
:101CA00080435361C5E5204608F010FECEE500BF35
:101CB000405327FFFF340C00401E1BFF3F420F0024
:101CC0007F4F12001FD6130060B6E5FE5FE31600DB
:101CD00000D3CEFE3F771B00C05BB3FEBF91210057
:101CE0001F753800E05459FEDF9C410090F8B8336E
:101CF000012B0BD010B50446012380F8B8330068DF
:101D000002F0BBFD002084F8B80310BD022070472C
:101D100070B54DB2002D22DB01F07F06C6EBC60682
:101D2000B40004F5FC74044401F07F012170ED0F50
:101D30006570A260E37005B1E180022B17D090F8C6
:101D4000B833012B16D00546012380F8B83321465D
:101D5000006802F060FA002085F8B80370BD01F059
:101D60007F06C6EBC606B40038340444DCE7002323
:101D70002371E4E70220F1E710B54AB2002A1CDB28
:101D800001F07F04C4EBC404A30003F5FC73034417
:101D900001F07F011970D20F5A7090F8B823012A10
:101DA00013D00446012280F8B8231946006802F0D7
:101DB0007BFA002084F8B80310BD01F07F04C4EB67
:101DC000C404A30038330344E2E70220F4E770B50B
:101DD00001F07F06F500A91B8C0004F5FC740119C5
:101DE000AD1BAC000444C4F80422C4F80C32002338
:101DF000C4F8103284F8F93184F8F8610369012BD2
:101E000006D066B1DAB2006802F0C6FA002070BDF2
:101E1000C6EBC605AC000444C4F80822F1E7DAB208
:101E2000006802F0EBFBF1E701F00F01C1EBC1012B
:101E30008B001844B0F81002704770B501F07F06AF
:101E4000F500A91B8C0038340119AD1BAC0004440B
:101E50006264E36400232365012384F8393084F845
:101E600038600369012B06D05EB1DAB2006802F077
:101E700093FA002070BDC6EBC605AC000444A26412
:101E8000F2E7DAB2006802F0B9FBF2E738B54AB21D
:101E9000002A1DDBC1EBC104A30003F5FC7303445E
:101EA00001249C7001F07F041C70D20F5A7090F8CE
:101EB000B823012A1BD00546012280F8B823194611
:101EC000006802F073FC5CB1002085F8B80338BDEF
:101ED00001F07F04C4EBC404A30038330344DFE7FC
:101EE00005F56F72297C286802F03EFDECE70220C0
:101EF000EDE710B54AB2002A1CDBC1EBC104A30018
:101F000003F5FC73034400249C7001F07F011970F9
:101F1000D20F5A7090F8B823012A13D00446012238
:101F200080F8B8231946006802F072FC002084F89B
:101F3000B80310BD01F07F04C4EBC404A300383320
:101F40000344E0E70220F4E730B40468606A29B192
:101F50000D46A36A00EB134000230CE040EA024068
:101F6000A06212E003F1400104EB8101496800EB3B
:101F700011400133DBB2691E8B42F3DB40EA0240C1
:101F800005F13F0104EB81014860002030BC70473F
:101F90000368596200207047002800F0BB8170B5CB
:101FA00082B00446036813F0010F3BD0A74B9B6837
:101FB00003F00C03042B2CD0A44B9B6803F00C0300
:101FC000082B21D06368B3F5803F4FD0B3F5A02F25
:101FD00052D09E4B1A6822F480321A601A6822F49A
:101FE00080221A606368002B50D0FFF733F9054652
:101FF000964B1B6813F4003F14D1FFF72BF9401BDD
:102000006428F5D903208AE1904B5B6813F4800FB4
:10201000D8D08E4B1B6813F4003F03D06368002BAD
:1020200000F07A81236813F0020F55D0874B9B682C
:1020300013F00C0F3ED0854B9B6803F00C03082B6C
:1020400033D0E368002B68D0814B01221A60FFF780
:1020500001F905467D4B1B6813F0020F54D1FFF7C1
:10206000F9F8401B0228F5D9032058E1774A136894
:1020700043F480331360B5E7744B1A6842F480224E
:102080001A601A6842F480321A60ABE7FFF7E2F890
:1020900005466E4B1B6813F4003FC3D0FFF7DAF818
:1020A000401B6428F5D9032039E1684B5B6813F4C1
:1020B000800FC6D1654B1B6813F0020F04D0E36894
:1020C000012B01D001202AE1604A136823F0F803B4
:1020D000216943EAC1031360236813F0080F40D05D
:1020E000636963B35B4B01221A60FFF7B3F80546DF
:1020F000564B5B6F13F0020F33D1FFF7ABF8401B69
:102100000228F5D903200AE1504A136823F0F803A6
:10211000216943EAC1031360DEE74D4B00221A60D8
:10212000FFF798F80546494B1B6813F0020FD3D010
:10213000FFF790F8401B0228F5D90320EFE0454B4C
:1021400000221A60FFF786F80546404B5B6F13F0DC
:10215000020F06D0FFF77EF8401B0228F5D90320B6
:10216000DDE0236813F0040F79D0384B1B6C13F0BB
:10217000805F33D100230193344B1A6C42F08052BC
:102180001A641B6C03F080530193019B0125324BB1
:102190001B6813F4807F23D0A368012B34D0052B58
:1021A00038D02A4B1A6F22F001021A671A6F22F0F8
:1021B00004021A67A368002B36D0FFF74BF80646D7
:1021C000224B1B6F13F0020F48D1FFF743F8801B1F
:1021D00041F288339842F3D90320A0E00025D6E7E6
:1021E0001D4A136843F480731360FFF733F8064603
:1021F000194B1B6813F4807FCED1FFF72BF8801B9F
:102200000228F5D903208AE0104A136F43F0010336
:102210001367CFE70D4B1A6F42F004021A671A6F6B
:1022200042F001021A67C5E7FFF714F80646074BAC
:102230001B6F13F0020F11D0FFF70CF8801B41F257
:1022400088339842F3D9032069E000BF0038024088
:1022500000004742800E474200700040E5B9A36984
:10226000002B5BD0304A926802F00C02082A58D04A
:10227000022B17D02D4B00221A60FEF7EBFF04460D
:10228000294B1B6813F0007F42D0FEF7E3FF001BD1
:102290000228F5D9032042E0234A136C23F080532F
:1022A0001364DCE7214B00221A60FEF7D3FF0546DA
:1022B0001D4B1B6813F0007F06D0FEF7CBFF401BC1
:1022C0000228F5D903202AE0E369226A1343626AEF
:1022D00043EA8213A26A5208013A43EA0243E26ADD
:1022E00043EA0263104A5360104B01221A60FEF762
:1022F000B1FF04460C4B1B6813F0007F06D1FEF7BC
:10230000A9FF001B0228F5D9032008E0002006E001
:10231000002004E001207047012000E0002002B00E
:1023200070BD0120FBE700BF00380240600047425B
:10233000324B9B6803F00C03042B5CD0082B01D0BC
:102340002F4870472DE9F04B2C4B5A6802F03F02A2
:102350005B6813F4800F2BD0284B5B68C3F38813A2
:102360001E4600275C010025E41A65EB0705A9015C
:1023700041EA9461A001001B61EB0501CB0043EA37
:102380005073C400A01943EB07014B0243EAD0533A
:102390004402204619460023FEF776F9174B5B6886
:1023A000C3F3014301335B00B0FBF3F0BDE8F08BF6
:1023B000124B5B68C3F388131E4600275C0100259F
:1023C000E41A65EB0705A90141EA9461A001001B2D
:1023D00061EB0501CB0043EA5073C400A01943EB45
:1023E00007018B0243EA90538402204619460023DA
:1023F000FEF74AF9D2E70348704700BF00380240B1
:102400000024F40000127A00002800F09D8070B5CE
:1024100004464F4B1B6803F00F038B4209D2CBB22B
:102420004B4A1370136803F00F038B4201D0012055
:1024300070BD236813F0020F17D013F0040F04D0FF
:10244000444A936843F4E0539360236813F0080F01
:1024500004D0404A936843F4604393603D4A9368D4
:1024600023F0F003A068034393600D46236813F044
:10247000010F32D06368012B21D09A1E012A25D981
:10248000344A126812F0020F60D032498A6822F092
:10249000030213438B60FEF7DDFE06462D4B9B685F
:1024A00003F00C036268B3EB820F16D0FEF7D2FE86
:1024B000801B41F288339842F0D90320B8E7254ABF
:1024C000126812F4003FE0D10120B1E7214A1268FE
:1024D00012F0007FD9D10120AAE71D4B1B6803F041
:1024E0000F03AB4209D9EAB2194B1A701B6803F00B
:1024F0000F03AB4201D001209AE7236813F0040FC9
:1025000006D0144A936823F4E053E1680B439360C8
:10251000236813F0080F07D00E4A936823F4604332
:10252000216943EAC1039360FFF702FF094B9B68EF
:10253000C3F30313084AD35CD840084B186001204A
:10254000FEF73EFE002073E70120704701206FE791
:10255000003C0240003802405C23010820010020BA
:10256000014B1868704700BF2001002030B583B0D0
:102570000446036813F0050F06D1236813F0020F19
:102580002ED1002003B030BD494B00221A60FEF767
:1025900061FE0546474B1B6813F0006F06D0FEF73F
:1025A00059FE401B0228F5D90320EBE76268A368B7
:1025B0001B0743EA82133F4AC2F884303C4B012296
:1025C0001A60FEF747FE05463A4B1B6813F0006F92
:1025D000D3D1FEF73FFE401B0228F5D90320D1E7F7
:1025E00000230193334B1A6C42F080521A641B6C27
:1025F00003F080530193019B2F4A136843F48073C7
:102600001360FEF727FE05462B4B1B6813F4807FF3
:1026100006D1FEF71FFE401B0228F5D90320B1E7C3
:10262000244B1B6F13F4407312D0E26802F4407223
:102630009A420DD01F4B1A6F22F440721F4901209D
:102640000860002008601A671B6F13F0010F13D198
:10265000E36803F44072B2F5407F1ED0154A9368D8
:1026600023F4F813936013490B6FE268C2F30B0273
:1026700013430B67002085E7FEF7ECFD05460D4B85
:102680001B6F13F0020FE3D1FEF7E4FD401B41F294
:1026900088339842F3D9032074E706498A6822F404
:1026A000F81223F0704323F4407313438B60DAE78E
:1026B000680047420038024000700040400E474228
:1026C00038B504460268D36823F0A003D360FEF750
:1026D000C1FD05462368DB6813F0200F07D1FEF724
:1026E000B9FD401BB0F57A7FF4D9032000E000204B
:1026F00038BD38B50368DA6812F0400F01D0002009
:1027000038BD04464FF0FF32DA60FEF7A3FD054600
:102710002368DB6813F0400F07D1FEF79BFD401BD9
:10272000B0F57A7FF4D90320EAE70020E8E738B56E
:1027300000285CD00446437F002B40D002236377FF
:102740002368CA225A62236853225A622046FFF73E
:10275000D0FF0546002836D12268936823F4E003B1
:1027600023F04003936021688A686368206903430B
:102770006069034313438B602368E2681A6122682F
:102780001369A16843EA014313612268D36823F007
:102790008003D36023689B6813F0200F1BD022684E
:1027A000136C23F4802313642268136CA1690B4318
:1027B00013642368FF225A620123637709E00377D9
:1027C00007F0C8FEBAE72368FF225A620423637742
:1027D0000125284638BD2046FFF772FF0028DED0CD
:1027E0002368FF225A62042363770125F1E701255C
:1027F000EFE7002302E001330A38C0B20928FAD813
:102800001B01DBB21843704770B5037F012B66D004
:1028100001230377022343773AB94B7813F0100F63
:1028200003D003F0EF030A334B700E460446002A30
:1028300032D1C878FFF7DDFF05047078FFF7D9FFC4
:1028400045EA0025B078FFF7D4FF2843357840EA01
:1028500045352368CA225A62236853225A622046A9
:10286000FFF747FF064610BB236825F07F4525F09C
:10287000C0055D602268D36823F08003D3602368BD
:102880009B6813F0200F1CD02368FF225A6201239B
:1028900063770023237712E0CD784878000240EA7E
:1028A00005408D7828430D7840EA4535D1E7236807
:1028B000FF225A62042363770023237701263046E0
:1028C00070BD2046FFF7FCFE0028DDD02368FF2204
:1028D0005A6204236377002323770126EFE7022659
:1028E000EDE7F8B5037F012B78D00D4604460123B0
:1028F000037702234377002A46D103689B6813F0CD
:10290000400F01D10023CB702878FFF772FF060437
:102910006878FFF76EFF46EA0026A878FFF769FFA0
:102920003043EE7840EA06462368CA225A6223689A
:1029300053225A622046FFF7DCFE0746002835D1B5
:10294000236806F07F3626F0FE461E6022689368F4
:1029500023F48023936021688B68EA682869024326
:1029600013438B602268D36823F08003D36023680D
:102970009B6813F0200F23D02368FF225A620123A3
:1029800063770023237719E003689B6813F0400FF7
:1029900001D10023CB702B786878000240EA034015
:1029A000AB781843EE7840EA0646BDE72368FF227D
:1029B0005A62042363770023237701273846F8BD42
:1029C0002046FFF77DFE0028D6D02368FF225A62FA
:1029D00004236377002323770127EFE70227EDE73E
:1029E000030903EB83035A0000F00F001044C0B248
:1029F000704770B503689B6A4B6003681B69C3F33B
:102A00000E038B6003681B6803F07F3323F0FE43E3
:102A10001D0C05F03F000870C3F306264E7003F04E
:102A20007F048C7005F04005CD705AB90D46FFF754
:102A3000D7FF28703046FFF7D3FF68702046FFF7B6
:102A4000CFFFA870002070BD70B503685B6823F0ED
:102A50007F4323F0C003180CC870C3F304264E70E4
:102A600003F03F058D70C3F342330B705AB90C4627
:102A7000FFF7B6FFE0703046FFF7B2FF6070284600
:102A8000FFF7AEFFA070002070BD70B582B00446A5
:102A900000230193006801F083F9054610B1284630
:102AA00002B070BD206801F08EF9064610B3002315
:102AB000A3642E46DEB9019B5A1C01924FF6FF72A9
:102AC000934244D00021206801F094F9002841D1BC
:102AD0000021206801F0A6F9064600283DD100211A
:102AE000206800F09CFFC00FE4D00646E2E7002318
:102AF0006364D4E70123A3640546EDB9019B5A1C26
:102B000001924FF6FF7293422AD00021206801F013
:102B100071F905460028C2D14FF08041206801F0CC
:102B200081F905460028BAD10021206800F077FF1E
:102B3000C30FE2D01D46E0E710F0804F03D1002321
:102B400063643546ABE7012363643546A7E74FF07E
:102B50008075A4E74FF08055A1E74FF080559EE7C0
:102B60004FF080759BE770B50546866A002405E046
:102B7000286800F02FFF46F824000134072CF7D90D
:102B8000AB6A2033AB62002070BD70B50546066AA3
:102B9000002405E006EB8401286800F01EFF0134E4
:102BA000072CF7D92B6A20332B62002070BD2DE94A
:102BB000F04188B004460F46FEF74CFB0646002362
:102BC000009301930821206801F040F8054618B1F0
:102BD000284608B0BDE8F081216D0904206801F0A5
:102BE00009F905460028F3D14FF0FF33029308237B
:102BF00003933023049302230593002306930123B8
:102C0000079302A9206801F00FF8206801F03BF952
:102C100005460028DCD1804605E0FEF71BFB801B43
:102C2000B0F1FF3F43D02068426B40F22A431A4282
:102C30000AD1436B13F4001FEFD000F0CBFE4DF828
:102C4000280008F10108E8E7436B13F0080F25D1CD
:102C5000436B13F0020F24D1436B13F0200F23D1E9
:102C600040F2FF538363009A130203F47F0343EAA5
:102C70000263110A01F47F410B4343EA12637B6054
:102C8000019A130203F47F0343EA0263110A01F479
:102C90007F410B4343EA12633B6099E70825856354
:102CA00096E70225856393E72025856390E74FF03B
:102CB00000458DE710B582B00446002100910191D6
:102CC000006800F0ACFE10F0007F16D16946204687
:102CD000FFF76DFF034690B9019B13F4802F11D0CD
:102CE000216D0904206801F085F8034638B90221F6
:102CF000206801F0B0F8034601E04FF40063184685
:102D000002B010BD4FF08063F9E710B582B0044601
:102D1000002100910191006800F081FE10F0007F19
:102D200016D169462046FFF742FF034690B9019B42
:102D300013F4803F11D0216D0904206801F05AF886
:102D4000034638B90021206801F085F8034601E008
:102D50004FF40063184602B010BD4FF08063F9E7EE
:102D600070B581B10D460446016D0904006801F09B
:102D7000E4F8064608B1304670BD0021206800F036
:102D80004EFE2860F7E74FF00066F4E72DE9F043C8
:102D900087B004460D4616461F46FEF75BFA6DB136
:102DA000804694F83430DBB2012B0DD0A36B43F096
:102DB0000053A363012007B0BDE8F083A36B43F089
:102DC0000063A3630120F6E70023A363F319E26D18
:102DD00093421BD8032384F8343023680022DA623C
:102DE000636C012B00D076024FF40071206800F074
:102DF0002DFF034680B1226840F2FF519163A06B22
:102E00001843A063012084F83400D4E7A36B43F097
:102E10000073A3630120CEE74FF0FF3300937B02E2
:102E2000019390230293022303930023049301232D
:102E300005936946206800F0F7FE012F15D902239B
:102E400023633146206800F031FF8146B9F1000F5D
:102E500025D0236840F2FF529A63A36B43EA09032B
:102E6000A363012084F83400A5E7012323633146DE
:102E7000206800F003FF8146E8E7206800F0AAFD23
:102E800045F826000136072EF7D920350E9B93B161
:102E9000FEF7E0F9A0EB08000E9B98420BD22068E9
:102EA000426B40F22A331A4212D1436B13F4004FA3
:102EB000ECD04E46E7E7236840F2FF529A63A36BDB
:102EC00043F00043A363012384F83430032072E706
:102ED000436B13F4807F07D0012F05D9636C032B5C
:102EE00002D000F02BFF50BB23685A6B12F0080F82
:102EF00030D15A6B12F0020F37D15A6B12F0200FFB
:102F00003ED12068436B13F4001F44D000F062FDF3
:102F100045F8040B0E9B33B1FEF79CF9A0EB0800BB
:102F20000E9B9842EDD3236840F2FF529A63A36B45
:102F300043F00043A363012084F834003BE7236897
:102F400040F2FF519963A36B0343A363012084F80C
:102F5000340030E740F2FF529A63A36B43F008035A
:102F6000A363012084F8340025E740F2FF529A63FE
:102F7000A36B43F00203A363012084F834001AE733
:102F800040F2FF529A63A36B43F02003A363012036
:102F900084F834000FE740F2FF538363012384F881
:102FA0003430002007E72DE9F04387B004460D4692
:102FB00016461F46FEF74EF96DB1804694F8343040
:102FC000DBB2012B0DD0A36B43F00053A3630120B0
:102FD00007B0BDE8F083A36B43F00063A363012057
:102FE000F6E70023A363F319E26D934228D8032385
:102FF00084F8343023680022DA62636C012B00D03D
:1030000076024FF40071206800F020FE0346E8B914
:10301000012F26D9202323633146206800F076FE55
:103020008146B9F1000F24D0236840F2FF529A6321
:10303000A36B43EA0903A363012084F83400C7E7C4
:10304000A36B43F00073A3630120C1E7226840F241
:10305000FF519163A06B1843A063012084F83400F2
:10306000B6E7102323633146206800F037FE81461F
:10307000D7E74FF0FF3300937B0201939023029335
:10308000002303930493012305936946206800F00D
:10309000CBFD11E005EB8601206800F09EFC0136B7
:1030A000072EF7D920350E9B93B1FEF7D3F8A0EB8E
:1030B00008000E9B98420BD22068426B40F21A33F4
:1030C0001A4212D1436B13F4804FECD04E46E7E71F
:1030D000236840F2FF529A63A36B43EA0903A36398
:1030E000012384F83430032072E7436B13F4807FAC
:1030F00007D0012F05D9636C032B02D000F01EFE10
:10310000B8B923685A6B12F0080F1DD15A6B12F030
:10311000020F24D15A6B12F0100F2BD040F2FF5245
:103120009A63A36B43F01003A363012084F8340077
:103130004EE7236840F2FF519963A36B0343A363F7
:10314000012084F8340043E740F2FF529A63A36BF6
:1031500043F00803A363012084F8340038E740F209
:10316000FF529A63A36B43F00203A363012084F828
:1031700034002DE740F2FF529A63012384F8343083
:10318000002025E7704730B4436E9A0F0A70C3F3EE
:1031900083624A70C3F301638B7090F86630CB7022
:1031A00090F865300B7190F864304B7190F86B308B
:1031B0001B01CB80B0F86A30CC88C3F303122243E2
:1031C000CA8003F00F030B7290F86930DA094A7273
:1031D000C3F380128A72C3F34012CA72C3F300129F
:1031E0000A7300224A73426C002A40F092809B02CC
:1031F00003F440630B61836E0A699B0003F47F73E1
:1032000013430B61C36E0A6942EA93720A61C3F306
:10321000C2620A75C3F302634B75C26EC2F3074301
:10322000C2F342548C75C2F38242CA755B0003F04C
:1032300006030B76C26EC2F307230C7EC2F3C032C4
:1032400022430A760A69013242650C7E023402FA90
:1032500004F444650A7AD5B20122AA408265520A72
:1032600002FB04F2C2654FF400720266C3F38012DF
:103270004A765B0003F07E038B76C36E8A7EC3F3CF
:10328000C01422438A7603F07F03CB76036F1A0EB5
:10329000DC0F0C77C3F341744C77C3F382638B77F5
:1032A000930003F00C03CB77036FCA7FC3F3815401
:1032B0002243CA77C3F3405281F82020002281F8CC
:1032C0002120C3F3004381F82230036FC3F3C034DD
:1032D00081F82340C3F3803481F82440C3F34034A1
:1032E00081F82540C3F3003481F82640C3F38124DC
:1032F00081F82740C3F3012381F82830036FC3F31B
:10330000460381F82930012381F82A30104630BC69
:103310007047012A0CD0036840F2FF529A63836B16
:1033200043F080538363012280F834201046EEE797
:10333000836E1B0403F47C130B6190F86F200B6900
:1033400043EA02230B610A6990F86E3013430B6164
:1033500090F86D300A69013292024265C2654FF4FD
:1033600000728265026681E770B590B00446012361
:10337000ADF81230006800F039FB00286AD0636CA9
:10338000032B43D1636C032B5BD1636C032B1DD0E8
:10339000BDF8121021650904206800F0A1FD054662
:1033A000002859D10021206800F039FB6066042113
:1033B000206800F034FBA0660821206800F02FFB95
:1033C000E0660C21206800F02AFB206704212068B9
:1033D00000F025FB000DE06405A92046FFF7D3FEB1
:1033E000226D12040023206800F0C2FC054698BB41
:1033F000234653F8106B93E807008DE80700043468
:1034000094E80E00304600F0C9FA25E0206800F08C
:1034100052FD054600BB0021206800F000FB6067FC
:103420000421206800F0FBFAA0670821206800F062
:10343000F6FAE0670C21206800F0F1FAC4F8800089
:10344000A0E70DF11201206800F05FFD054600289D
:103450009BD001E04FF08065284610B070BD0000A1
:1034600070B58AB005460024049405940694079428
:103470000894762309930AAB13E907008DE8070047
:1034800004AB0ECB286800F089FA124E346028682D
:1034900000F0A8FA012333600220FDF7E1FE284680
:1034A000FFF7F3FA40B10246012085F83400AB6B18
:1034B0001343AB630AB070BD2846FFF755FF0246C1
:1034C00030B1012085F83400AB6B1343AB63F1E7F7
:1034D0000020EFE7A0802542A8B110B5044690F87F
:1034E000343063B1032384F834302046FFF7B8FF4B
:1034F0000020A0632063012384F8343010BD0377DB
:1035000007F036F8EEE701207047436C0B60836CE0
:103510004B60C36C8B60036DCB60436D0B61836D3F
:103520004B61C36D8B61036ECB610020704730B57A
:103530008BB004460D46032380F83430436C032BD4
:103540001CD0B1F5805F08D0B1F5006F0AD079B119
:10355000836B43F00063836314E0836B43F0805319
:1035600083630FE0FFF7A6FBA36B1843A06309E09A
:10357000FFF7CBFBA36B1843A06303E0836B43F01F
:1035800080538363A36B43B1236840F2FF529A6375
:10359000012084F834000BB030BD63680493A36845
:1035A0000593E3680693079563690893A3690993F4
:1035B0000AAB13E907008DE8070004AB0ECB2068C7
:1035C00000F0ECF9012384F834300020E3E710B573
:1035D00082B0044602A9002341F8043DFFF7C0FB76
:1035E00018B10346A06B1843A0630198C0F34320B1
:1035F00002B010BD10B5846B236C0BB100232364A3
:10360000E36B03B110BD2046FFF7E1FF0023A36386
:10361000012384F834300538C0B29842F2D82068CB
:1036200000F08CFBA36B1843A063A36B1BB920466F
:10363000FFF7A8FDE6E7204603F0A5FAE2E710B59C
:10364000846BE36B0BB10023E363236C03B110BD08
:103650002046FFF7BCFF0023A363012384F8343026
:103660000538C0B29842F2D8206800F067FBA36B1F
:103670001843A063A36B1BB92046FFF783FDE6E761
:10368000204603F080FAE2E710B5044603685A6B5F
:1036900012F4807F61D04FF480729A630268D36B1A
:1036A00023F44E7323F00203D363036B13F0080F6C
:1036B0002AD0036B13F0020F03D1036B13F0200F1A
:1036C00004D0206800F03AFB034690B9236840F22A
:1036D000FF529A63012384F83430236B13F0010FF7
:1036E00003D1236B13F0020F0AD0204603F055FAE2
:1036F00010BDA26B1343A3632046FFF743FDE5E72C
:10370000204603F045FAF3E7036B13F0800FEFD088
:10371000036B13F0200F13D1236B13F0010FE7D1CC
:10372000236B13F0020FE3D12268D36A23F008035E
:10373000D362012384F83430204603F029FAD7E716
:10374000006800F0FBFA03460028E5D0A26B1343A3
:10375000A3632046FFF716FDDEE75A6B12F4804F95
:103760004CD15A6B12F4004F4ED1596B40F23A22B1
:103770001142BDD05A6B12F0020F03D0826B42F09F
:10378000020282635A6B12F0080F03D0A26B42F060
:103790000802A2635A6B12F0200F03D0A26B42F012
:1037A0002002A2635A6B12F0100F03D0A26B42F0FA
:1037B0001002A2635A6B12F4007F03D0A26B42F096
:1037C0000802A26340F2FF729A632268D36B23F46B
:1037D0004E7323F00203D363236B13F0800F30D0BA
:1037E000236CBBB11D4A1A65206CFDF7CAFD002889
:1037F0003FF47EAF206CFFF7FDFE79E74FF4804287
:103800009A63FFF7C2F973E74FF400429A63FFF738
:10381000AAF96DE7E36B5BB1114A1A65E06BFDF73E
:10382000B0FD00283FF464AFE06BFFF708FF5FE7EF
:103830000023A363012384F83430204603F0A3F966
:1038400056E7236B13F0080F3FF452AF012384F8BF
:1038500034302046FFF796FC4AE700BFF5350008F4
:103860003F3600080C4B1B680C4AA2FB03235A0A84
:1038700041F2883303FB02F35A1E4BB1416B1346EE
:1038800011F0800FF8D040F2FF538363002070479F
:103890004FF00040704700BF20010020D34D621060
:1038A000144B1B68144AA2FB03235A0A41F28833C3
:1038B00003FB02F35A1ECBB1416B134611F0450FC7
:1038C000F8D0436B13F0040F08D1436B13F0010FD2
:1038D00008D140F2FF5383630020704704238363C1
:1038E0001846704701238363184670474FF0004025
:1038F000704700BF20010020D34D6210104B1B68A1
:10390000104AA2FB03235A0A41F2883303FB02F355
:103910005A1E8BB1416B134611F0450FF8D0436B23
:1039200013F0040F04D140F2FF538363002070476B
:1039300004238363184670474FF00040704700BF70
:1039400020010020D34D6210124B1B68124AA2FBCB
:1039500003235A0A41F2883303FB02F35A1EA3B130
:10396000416B134611F0450FF8D0436B13F0040F71
:1039700007D1436B13F0400F0AD04023836300202C
:10398000704740238363042070474FF00040704726
:103990000020704720010020D34D621084B010B485
:1039A00002AC84E80E000B46039A1343049A1343B7
:1039B000059A1343069A1343079A1343426822F465
:1039C000FD4222F07F021343436000205DF8044B68
:1039D00004B07047D0F8800070470B68C0F88030A2
:1039E000002070470323036000207047006800F048
:1039F000030070470B6883604B688A681343CA688A
:103A000013430A691343C26822F47F6222F00F0253
:103A10001343C360002070470069C0B2704782B092
:103A200000230193143001440191019B186802B0F6
:103A30007047000038B5514B1B68514CA4FB034341
:103A40005B0A02FB03F2531E002A5ED0446B1A4647
:103A500014F0450FF7D0436B13F0040F07D1436BFD
:103A600013F0010F07D00123836318464FE00423AE
:103A7000836318464BE00D460446FFF7CDFFA8428E
:103A800001D0012043E040F2FF53A3630021204610
:103A9000FFF7C5FF3B4B0340D3B300283ADB10F0E0
:103AA000804F3AD110F0005F39D110F0805F38D1EB
:103AB00010F0006F38D110F0806F38D110F0807F97
:103AC00038D110F4000F38D110F4800F38D110F431
:103AD000001F38D110F4801F38D110F4802F38D156
:103AE00010F4003F38D110F4803F38D110F4004F6B
:103AF00038D110F4804F38D110F4005F38D110F075
:103B0000080F38D04FF4000001E04FF0004038BDFE
:103B10000020FCE74FF00070F9E74020F7E7802035
:103B2000F5E74FF48070F2E74FF40070EFE74FF4E1
:103B30008060ECE74FF40060E9E74FF48050E6E77F
:103B40004FF40050E3E74FF48040E0E74FF40040CB
:103B5000DDE74FF40030DAE74FF48020D7E74FF489
:103B60000020D4E74FF48010D1E74FF40010CEE7E7
:103B70004FF48000CBE74FF48030C8E720010020ED
:103B8000D34D621008E0FFFD70B5254B1B68254C36
:103B9000A4FB03435C0A41F2883303FB04F35C1E7D
:103BA000A3B3456B234615F0450FF8D0436B13F0D4
:103BB000040F07D1436B13F0010F07D00123836378
:103BC000184625E004238363184621E016460D4677
:103BD0000446FFF721FFA84201D0012018E040F27F
:103BE000FF53A36300212046FFF719FF10F4604F35
:103BF00008D010F4804F0CD110F4004F0CD04FF4CB
:103C0000805005E0000C3080002001E04FF00040C3
:103C100070BD4FF40050FBE74FF48030F8E700BF71
:103C200020010020D34D62100B6843624B68836211
:103C30008B68CA6813430A6913434A691343C26A0B
:103C400022F0F7021343C3620020704730B587B0FB
:103C5000054601911024029440230393002304930A
:103C60004FF48063059301A9FFF7C4FE41F2883247
:103C700021462846FFF7DEFE07B030BD30B587B0DD
:103C800005460191112402944023039300230493D9
:103C90004FF48063059301A9FFF7ACFE41F288322F
:103CA00021462846FFF7C6FE07B030BD30B587B0C5
:103CB00005460191122402944023039300230493A8
:103CC0004FF48063059301A9FFF794FE41F2883217
:103CD00021462846FFF7AEFE07B030BD30B587B0AD
:103CE0000546019118240294402303930023049372
:103CF0004FF48063059301A9FFF77CFE41F28832FF
:103D000021462846FFF796FE07B030BD30B587B094
:103D10000546019119240294402303930023049340
:103D20004FF48063059301A9FFF764FE41F28832E6
:103D300021462846FFF77EFE07B030BD30B587B07C
:103D40000546002301930C2402944022039204931D
:103D50004FF48063059301A9FFF74CFE034A214607
:103D60002846FFF767FE07B030BD00BF00E1F5054C
:103D700030B587B00546019207240294402303938F
:103D8000002304934FF48063059301A9FFF732FEEB
:103D900041F2883221462846FFF74CFE07B030BD7D
:103DA00010B586B004460023019302930393049355
:103DB0004FF48063059301A9FFF71CFE2046FFF72F
:103DC00051FD06B010BD10B586B004464FF4D57352
:103DD00001930823029340230393002304934FF499
:103DE0008063059301A9FFF705FE2046FFF7ACFDB0
:103DF00006B010BD30B587B0054601913724029456
:103E000040230393002304934FF48063059301A997
:103E1000FFF7F0FD41F2883221462846FFF70AFEFF
:103E200007B030BD10B586B0044641F0004141F402
:103E300080110191292302934023039300230493CB
:103E40004FF48063059301A9FFF7D4FD2046FFF7E7
:103E500055FD06B010BD30B587B00546019106246A
:103E6000029440230393002304934FF4806305934B
:103E700001A9FFF7BFFD41F2883221462846FFF72E
:103E8000D9FD07B030BD30B587B00546002301939A
:103E9000332402944022039204934FF480630593E9
:103EA00001A9FFF7A7FD41F2883221462846FFF716
:103EB000C1FD07B030BD10B586B0044600230193A4
:103EC00002220292C022039204934FF4806305936E
:103ED00001A9FFF78FFD2046FFF7E2FC06B010BDF9
:103EE00010B586B00446019109230293C0230393C1
:103EF000002304934FF48063059301A9FFF77AFD33
:103F00002046FFF7CDFC06B010BD70B586B0054663
:103F10000E4600230193032402944022039204934B
:103F20004FF48063059301A9FFF764FD32462146F3
:103F30002846FFF729FE06B070BD30B587B00546AC
:103F400001910D24029440230393002304934FF422
:103F50008063059301A9FFF74DFD41F288322146A8
:103F60002846FFF767FD07B030BD84B010B50446A2
:103F700003A880E80E00089B012B20D1A36B23F43B
:103F80008033A363E36823F4840323F04003E360F6
:103F9000E36823F44013E3600F9B012B0AD0204613
:103FA00000F006FD069B012B14D00020BDE8104058
:103FB00004B07047E36843F48013E360EFE7E3681D
:103FC00043F04003E360204600F0F2FC4FF48033FE
:103FD000A363E7E7A36843F00603A360A36843F085
:103FE0002003A360E1E7836843F0010383600020BE
:103FF0007047836823F0010383600020704708B591
:10400000C36823F0C043C360012909D019B9C3684C
:1040100043F08043C3603220FDF722F9002008BD41
:10402000C36843F00053C360F5E7000084B0F8B5FF
:10403000044607A880E80E00119FBFB9A36B43F4A4
:104040000013A36325460023C4F8003E04F5006670
:10405000D4F80038C4F800380C9B012B10D1099B10
:104060004BB90021204600F0AFF80DE0A36B43F4FC
:104070000023A363E6E70121204600F0A5F803E052
:104080000321204600F0A0F81021204600F076F829
:10409000204600F087F80023336173614FF0FF3250
:1040A000B261F36108E04FF09040C2F800090022CD
:1040B0000A61FF228A600133079999420BD905EB07
:1040C000431202F51061D2F800090028EBDB002052
:1040D000C2F80009EBE7002308E04FF0904CC2F86B
:1040E00000CB00220261FF228260013399420DD988
:1040F00005EB431202F53060D2F800CBBCF1000FA3
:10410000EBDB4FF0000CC2F800CBEAE7336923F495
:10411000807333610A9B012B1AD00022A2616FF0D9
:10412000804262611BB9A36943F01003A361A269D5
:10413000104B1343A3610D9B1BB1A36943F008030C
:10414000A361012F0ED00020BDE8F84004B07047F5
:10415000094A3263326B42F4803242F00302326326
:10416000326BDAE7A36943F0804343F00403A361B1
:10417000E9E700BF00383C8000018000890141F080
:104180002001016100230133054A934205D80269E9
:1041900012F0200FF7D1002070470320704700BFB6
:1041A000400D03001023036100230133054A9342AD
:1041B00005D8026912F0100FF7D1002070470320D4
:1041C000704700BF400D0300D0F800381943C0F815
:1041D000001800207047D0F8083800F5006013F090
:1041E000060F10D0836803F00603022B0DD08368FE
:1041F00003F00603062B0AD0836803F00603042BA2
:1042000007D000207047002070470320704703202C
:1042100070470220704730B44B78012B22D0D0F881
:104220001C380D780122AA4043EA0243C0F81C382A
:104230000B7800EB4310D0F8003B13F4004F0ED185
:10424000D0F8003B8A68C2F30A02C97842EA814288
:10425000134343F0805343F40043C0F8003B002075
:1042600030BC7047D0F81C280D78AB409BB213438C
:10427000C0F81C380C7800EB4410D0F8003913F467
:10428000004FECD1D0F800398A68C2F30A02C9782D
:1042900042EA814242EA8452134343F0805343F49A
:1042A0000043C0F80039DAE738B54B78012B36D037
:1042B0000B78044600EB4313D3F8002B22F40042A2
:1042C000C3F8002B0B7800EB43134FF00062C3F8E8
:1042D000002B0B7800EB43134FF08042C3F8002B08
:1042E000002201322B4B9A4252D80B7804EB431335
:1042F00003F530639B6813F0100FF2D1D0F8043847
:1043000043F48063C0F80438D0F81C3809780122DF
:104310008A4023EA0243C0F81C38002038BD0B78DD
:10432000044600EB4313D3F8002922F40042C3F8FB
:1043300000290B7800EB43134FF00062C3F800290B
:104340000B7800EB43134FF08042C3F800290022A2
:104350000132104B9A4219D80B7804EB431303F542
:1043600010639B6813F0804FF2D10D460446102174
:10437000FFF704FFD4F81C28297801238B409BB257
:1043800022EA0303C4F81C380020C7E70320C5E76E
:104390000320C3E7400D030070B582B04B78012BBA
:1043A0003ED00B7800EB4313D3F8104BE40CE4043D
:1043B000C3F8104B0B7800EB4313D3F8104B24F0E9
:1043C000FF5424F4C014C3F8104B4B69002B40F089
:1043D000D4800B7800EB4313D3F8104B8D68C5F3F2
:1043E00012052C43C3F8104B0B7800EB4313D3F8A2
:1043F000104B44F40024C3F8104B012A00F0DC8079
:10440000CB78012B00F0DF800B7800EB4310D0F865
:10441000003B43F00443C0F8003B002002B070BDF5
:104420004B696BBB0B7800EB4313D3F8104924F0B6
:10443000FF5424F4C014C3F810490B7800EB431365
:10444000D3F8104944F40024C3F810490B7800EB6A
:104450004313D3F81049E40CE404C3F81049012ACB
:1044600054D0CB78012B57D04B69002B54D0D0F8C7
:1044700034380E780124B4402343C0F834384BE07C
:104480000B7800EB4313D3F81049E40CE404C3F8B1
:1044900010490B7800EB4313D3F8104924F0FF5474
:1044A00024F4C014C3F810490C7800EB4414D4F879
:1044B00010594B698E683344013BB3FBF6F34E4E03
:1044C00006EAC3432B43C4F810390B7800EB4313BF
:1044D000D3F810494D69C5F312052C43C3F81049B0
:1044E000CB78012BBBD10B7800EB4313D3F81049E9
:1044F00024F0C044C3F810490B7800EB4313D3F801
:10450000104944F00054C3F81049A8E70B7800EBB9
:1045100043130C69C3F81449CB78012B14D00B78E2
:1045200000EB4313D3F8004944F00444C3F80049B6
:10453000CB78012B7FF471AF14468B8A0A78C96857
:10454000009400F00BF968E7D0F8083813F4807F86
:1045500009D10B7800EB4313D3F8004944F0005421
:10456000C3F80049DBE70B7800EB4313D3F80049AD
:1045700044F08054C3F80049D1E78C682344013BE0
:10458000B3FBF4F30C7800EB4414D4F8105B1A4E30
:1045900006EAC3463543C4F8105B0C7800EB4414BC
:1045A000D4F8106B8D689BB205FB03F5C5F31205BB
:1045B0003543C4F8105B20E7CA680B7800EB43135F
:1045C000C3F8142B1CE7D0F8083813F4807F09D106
:1045D0000B7800EB4313D3F8002B42F00052C3F8E2
:1045E000002B11E70B7800EB4313D3F8002B42F0BC
:1045F0008052C3F8002B07E70000F81F30B44B7857
:10460000012B39D00B7800EB4313D3F8104BE40C9B
:10461000E404C3F8104B0B7800EB4313D3F8104BB2
:1046200024F0FF5424F4C014C3F8104B4B690BB1B1
:104630008B684B610B7800EB4313D3F8104B44F4B9
:104640000024C3F8104B0B7800EB4313D3F8104B46
:104650008D68C5F312052C43C3F8104B012A76D0A0
:104660000B7800EB4310D0F8003B43F00443C0F854
:10467000003B002030BC70474B699BBB0B7800EBC4
:104680004313D3F8104924F0FF5424F4C014C3F8A2
:1046900010490B7800EB4313D3F8104944F400247D
:1046A000C3F810490B7800EB4313D3F81049E40C1E
:1046B000E404C3F810490B7800EB4313D3F8004926
:1046C00044F00444C3F80049012A39D04B69002B57
:1046D000CFD0D0F83438097801228A401343C0F88B
:1046E0003438C6E70B7800EB4313D3F81049E40CD9
:1046F000E404C3F810490B7800EB4313D3F81049D6
:1047000024F0FF5424F4C014C3F810494C698B689A
:104710009C4200D94B610B7800EB4313D3F810494E
:1047200044F40024C3F810490B7800EB4313D3F88A
:1047300010494D69C5F312052C43C3F81049BAE777
:104740000B7800EB43100B69C0F8143991E7CA6885
:104750000B7800EB4313C3F8142B81E770B49DF87A
:104760000C4064B903339D0807E000EB023303F506
:10477000805351F8046B1E600134AC42F5D3002025
:1047800070BC704703329208002393420CD210B4DD
:1047900000F58054246841F8044B01339342F7D369
:1047A00008465DF8044B7047084670474B78012B6C
:1047B00017D00B7800EB4313D3F8002B002A05DB4E
:1047C000D3F8002B22F08042C3F8002B0B7800EBCB
:1047D0004310D0F8003B43F40013C0F8003B002026
:1047E00070470B7800EB4313D3F80029002A05DB50
:1047F000D3F8002922F08042C3F800290B7800EB9F
:104800004310D0F8003943F40013C0F80039E6E74C
:104810004B78012B0FD00B7800EB4313D3F8002B10
:1048200022F40012C3F8002BCB78023BDBB2012B41
:1048300019D9002070470B7800EB4313D3F80029F7
:1048400022F40012C3F80029CB78023BDBB2012B23
:10485000EFD80B7800EB4310D0F8003943F08053C9
:10486000C0F80039E5E70B7800EB4310D0F8003BC7
:1048700043F08053C0F8003BDBE7D0F8003823F466
:10488000FE63C0F80038D0F80038090101F4FE6179
:104890000B43C0F800380020704708B5D0F8043842
:1048A00023F00203C0F804380320FCF7D9FC0020F1
:1048B00008BD08B5D0F8043843F00203C0F8043846
:1048C0000320FCF7CDFC002008BD42698069104040
:1048D0007047D0F8183800F50060C0691840000C27
:1048E0007047D0F8183800F50060C069184080B2F1
:1048F000704700EB4111D1F8082B00F500604069CA
:104900001040704710B4D0F81048D0F83438CB407D
:10491000DB01DBB2234300EB411000F5106080683F
:1049200018405DF8044B7047406900F00100704783
:10493000D0F8003923F4FF6323F00703C0F80039EF
:1049400000F500639A6802F00602042A05D05A684E
:1049500042F480725A6000207047D0F8002942F07B
:104960000302C0F80029F2E710B40024C0F8104B8D
:10497000D0F8104B44F40024C0F8104BD0F8104B82
:1049800044F01804C0F8104BD0F8104B44F0C04469
:10499000C0F8104B012903D000205DF8044B70478C
:1049A000C0F8142B4FF08023C0F8003BF4E7000060
:1049B000002301330C4A934211D80269002AF8DA25
:1049C000036943F00103036100230133064A934264
:1049D00007D8026912F0010FF7D1002070470320B9
:1049E00070470320704700BF400D0300836A90F8B2
:1049F000250000FB0130704710B5144603685B6862
:104A00009847204410BD704710B5044606F0BAF828
:104A1000204610BD84B0F0B4044605AD85E80E0014
:104A20001D4B03601D4B036143F610738382002707
:104A30008775C775C76100F120060FCD0FC62B68BB
:104A40003360BDF82830A380677294F82510C80041
:104A5000A081236ADA8D94F8245092FBF5F26281EA
:104A6000BDF82C3093FBF5F3E381121A02EBD272FE
:104A70005210E28094F82620A3EBC20303EBD37319
:104A80005B10237201FB02F36383DB002383204668
:104A9000F0BC04B0704700BF7C23010890230108DC
:104AA00010B50446028B0021806A06F099FC0023B1
:104AB000628B9A4205DDE26AA18A22F81310013363
:104AC000F6E7A28A236B1A7010BD818270472DE928
:104AD000F04F89B005900691079218460493BDF8EF
:104AE00048409DF84C309DF85020029201F0070696
:104AF000C6F10807FFB213B9035D0134A4B2029AEC
:104B000022B9049A125D02920134A4B213F0070292
:104B1000039205D0DB0801335FFA83FB002530E008
:104B20004FEAD30B08230393F8E7039BF3184FF0E6
:104B3000FF0848FA03F85FFA88F837E00398304432
:104B400007280DDC12F801CC4FF0FF0E4EFA00FEE4
:104B50000EEA010149B24CEA0101C9B202F8011C96
:104B60000838002806DD11784FF0FF0C4CFA00F0F1
:104B7000084010701178BB400B43DBB21370013555
:104B8000EDB2029BAB4250D9059803685B68079A67
:104B9000511989B29847069B4FEAD30C00EB0C03DE
:104BA0000193BBF1010FC0D04FF0000810F80C10BA
:104BB000C9B210F80CE0B946FF23BB4043EA080332
:104BC0005BB20EEA030300F80C3004F1010A1FFA8D
:104BD0008AFA049B9846E35C10F80C40B64643FA08
:104BE00006F21443E4B200F80C40019A01320AEBD9
:104BF0000B0C1FFA8CFC0CF1FF3C1FFA8CFC54468A
:104C000064459BD21178C9B203FA09F3DBB2137081
:104C100014F80830107843FA0EFA40EA0A00C0B2DD
:104C200002F8010B0134A4B2EAE709B0BDE8F08F45
:104C300030B585B015461A468C789DF820301B1B80
:104C4000DBB24C7803FB04F302940C780194033339
:104C50009BB200930B462946FFF739FF05B030BDE4
:104C600070B582B005460E4614460093D300CA00C4
:104C70000169FFF7DDFFEB6A95F8252002FB04646C
:104C8000BDF8182023F8142002B070BD10B4C16A1A
:104C9000C37D90F82540827D04FB032331F8132067
:104CA00052BA21F813205DF8044B704770B50446E2
:104CB0000D461646837D8B4212D094F82530AB42C8
:104CC00001D85D1EEDB294F82630B34201D85E1EC5
:104CD000F6B2637A43B9A575E675637A43B970BDD8
:104CE000C37D9342E9D1FAE72046FFF7CFFFF2E711
:104CF0002046FFF7CBFFF2E708B5817DC27D90F833
:104D00002530013B994208DB90F82630013B9A425E
:104D100005DA0132D2B2002101E00131C9B2FFF758
:104D2000C5FF08BD2DE9F04182B0054616460D29A4
:104D30002AD8DFE801F02629292929292929132938
:104D400007292924C27D90F82630013B9A4218DABF
:104D50000132D2B20021FFF7A9FF12E0817D81B1BB
:104D6000C27D013900962023C9B2FFF779FFA97DE2
:104D70000139EA7DC9B22846FFF798FF01E0002318
:104D8000837502B0BDE8F0810C46877D90F81780EE
:104D9000FFF7B2FF00962346424639462846FFF702
:104DA0005FFFEEE738B505460C4603693BB1217855
:104DB00029B10134AA8A2846FFF7B4FFF7E738BDC6
:104DC00038B504461D46FFF771FF29462046FFF718
:104DD000E9FF38BDF8B505460F46164690F8254060
:104DE0001046FBF76DFE211A33463A46C1F34701E0
:104DF0002846FFF7E5FFF8BD08B5437A03B108BDC3
:104E000001234372FFF742FFF9E708B5437A03B97C
:104E100008BD00234372FFF739FFF9E710B40068BB
:104E200051F8043B4FEA301000F0080423FA04F470
:104E300002F8014B4FEAF07000F0080423FA04F482
:104E400002F8014B4FEAF07000F0080423FA04F472
:104E500002F8014B4FEAF07000F0080423FA04F462
:104E600002F8014B4FEAF07000F0080423FA04F452
:104E700002F8014B4FEAF07000F0080423FA04F442
:104E800002F8014B4FEAF07000F0080423FA04F432
:104E900002F8014B4FEAF07000F0080423FA04F422
:104EA00002F8014B4FEA33434FEAF03000F00804B8
:104EB00023FA04F402F8014B4FEAF07000F0080402
:104EC00023FA04F402F8014B4FEAF07000F00804F2
:104ED00023FA04F402F8014B4FEAF07000F00804E2
:104EE00023FA04F402F8014B4FEAF07000F00804D2
:104EF00023FA04F402F8014B4FEAF07000F00804C2
:104F000023FA04F402F8014B4FEAF07000F00804B1
:104F100023FA04F402F8014B4FEAF07000F00804A1
:104F200023FA04F402F8014B51F8043B4FEAF03045
:104F300000F0080423FA04F402F8014B4FEAF07081
:104F400000F0080423FA04F402F8014B4FEAF07071
:104F500000F0080423FA04F402F8014B4FEAF07061
:104F600000F0080423FA04F402F8014B4FEAF07051
:104F700000F0080423FA04F402F8014B4FEAF07041
:104F800000F0080423FA04F402F8014B4FEAF07031
:104F900000F0080423FA04F402F8014B4FEAF07021
:104FA00000F0080423FA04F402F8014B4FEA3343FB
:104FB0004FEAF03000F0080423FA04F402F8014B41
:104FC0004FEAF07000F0080423FA04F402F8014BF1
:104FD0004FEAF07000F0080423FA04F402F8014BE1
:104FE0004FEAF07000F0080423FA04F402F8014BD1
:104FF0004FEAF07000F0080423FA04F402F8014BC1
:105000004FEAF07000F0080423FA04F402F8014BB0
:105010004FEAF07000F0080423FA04F402F8014BA0
:105020004FEAF07000F0080423FA04F402F8014B90
:1050300010BC7047036A407F00FB0130704710B519
:10504000144603685B68984700EB440010BD704746
:1050500010B5044605F096FD204610BD84B030B46E
:1050600003AD85E80E00134B036000234361BDF8D8
:1050700020308380427FD10081818369DA8D057F72
:1050800092FBF5F24281BDF8243093FBF5F3C38126
:10509000521A02EBD2725210C280827FA3EBC2037B
:1050A00003EBD3735B1003724FF48033036130BCA6
:1050B00004B07047942B010870470020704700002F
:1050C0000023072B05DC064A002122F813100133C8
:1050D000F7E7034B00225A8280221A74704700BF00
:1050E0007817002008B5024B1860FFF7E9FF08BDEC
:1050F000741700200023024A1370024A137070478D
:105100003CE900203DE90020104B1A78104B19783B
:105110000631104B83FB01C30B449B10C3EBC3034D
:10512000CB1A9A420FD00C4B43F822000132094BA4
:1051300083FB021313449B10C3EBC303D31A034A2C
:105140001370002070474FF0FF3070473DE900209A
:105150003CE900209324499220E900200D4B1A7865
:105160000D4B1B789A4211D00C4A52F82330036041
:1051700009490A7801320A4B83FB020313449B104E
:10518000C3EBC303D31A0B70002070474FF0FF30FE
:10519000704700BF3DE900203CE9002020E90020E5
:1051A0009324499230B587B000240094144B1A6BB5
:1051B00042F002021A631B6B03F002030093009B90
:1051C0004FF480430193029403940E4D01A92846A5
:1051D000FCF7EAF84FF4005301930294039401A9F9
:1051E0002846FCF7E1F8084B1C70FFF783FF074BDC
:1051F0001C60074B1C70074B1C7007B030BD00BF14
:105200000038024000040240A11700209C17002033
:10521000981700209917002000B583B001A8FFF768
:105220009DFFB0F1FF3F08D00198C3B2122B08D008
:10523000592B0FD003B05DF804FB4FF0FF330193FF
:10524000F2E700F47F42B2F5704218BF012206492E
:105250000A70EDE700F47F43B3F5704318BF0123F4
:10526000024A1370E6E700BF981700209917002044
:1052700008B50346A0F10E02582A00F28F80DFE83D
:1052800002F07F8D8D8D8D8D8D4B618D8D8D5D4F60
:105290002D57638D8D2F59313367658D8D7555353C
:1052A000514D698D8D458F39375B6B8D8D8D433DAC
:1052B000536D6F8D8D773F3B475F718D8D7B7D414A
:1052C0008349798D8D8D818D878B8D8D8D8D8D8988
:1052D0008D858D8D8D8D8D8D8D8D7300612060E020
:1052E00063205EE064205CE065205AE0662058E0C0
:1052F000672056E0682054E0692052E06A2050E0C0
:105300006B204EE06C204CE06D204AE06E2048E0BF
:105310006F2046E0702044E0712042E0722040E0BF
:1053200073203EE074203CE075203AE0762038E0BF
:10533000772036E0782034E0792032E07A2030E0BF
:1053400030202EE031202CE032202AE0332028E0EB
:10535000342026E0352024E0362022E0372020E0EB
:1053600038201EE039201CE008201AE0202018E038
:105370002C2016E02D2014E02E2012E02F2010E02B
:1053800060200EE027200CE03B200AE05C2008E0D3
:105390005B2006E05D2004E03D2002E0002000E00C
:1053A0006220314A12781AB9304A1278002A59D04C
:1053B0000E3B4F2B51D8DFE803F042505050505075
:1053C000505054505050505050502A5050505050FF
:1053D000502E2C5050505050505030505050505033
:1053E000505032505050505050343650503A505027
:1053F00050283850503E405046503C505050445039
:105400004A4E50505050504C504829202AE04020DD
:1054100028E0232026E0242024E0252022E05E202E
:1054200020E026201EE02A201CE028201AE03C2054
:1054300018E05F2016E03E2014E03F2012E07E20BE
:1054400010E022200EE03A200CE07C200AE07B20D5
:1054500008E07D2006E02B2004E008F009FDC0B242
:1054600000E0212008BD00BF9817002099170020F8
:1054700070B506460D460024FF2C06DC305D08F0B2
:10548000E9FC0B4B18550134F6E70024FF2C06DC31
:10549000285D08F0DFFC074B18550134F6E7054896
:1054A0004FF480720146A0F2011006F02FFB70BD90
:1054B000105800201159002010B4094B83FB004301
:1054C00003449B10074C2478013414FB03F40C7044
:1054D000C3EBC303C11A4B1C13705DF8044B704738
:1054E000932449926E01002010B5084C0F2201460A
:1054F000204606F057FB0023A3732E21204606F01A
:1055000083FB08B100220270004810BD1058002033
:1055100008B50248FFF7D0FD08BD00BFDC1700202A
:10552000294BB3F9003003B9704730B5ADF5177D9D
:105530000446264B18800DF256220DF25721FFF734
:10554000BBFF234B9DF856229DF857122148FFF7C9
:1055500037FC01222049214803F0BEFD10B10DF5B2
:10556000177D30BD1E4B186800EB04241D4D4FF411
:1055700080722146284606F015FB2E21284606F0AB
:1055800043FB034640B1184A1068186001222946BF
:10559000684603F0C9FD58B101222146684603F070
:1055A000C3FD58B100220C490C4803F095FDD6E725
:1055B000FFF7AEFF684603F0C3FFF3E7FFF7A8FF6E
:1055C000684603F0BDFFEDE7A2170020A6170020F4
:1055D000A82B0108A817002044E9002098EB002020
:1055E0007001002010580020AC2B010810B5ADF55B
:1055F000147D044601220B490B4803F06DFD10B1E8
:105600000DF5147D10BD01222146684603F08CFD86
:10561000684603F095FF00220249034803F05CFD51
:10562000EEE700BF44E9002098EB002010B5ADF58F
:10563000147D044601221449144803F04DFD18B1AD
:1056400000200DF5147D10BD06222146684603F0AA
:105650006BFD0346082806D093B100220A490B4887
:1056600003F03AFDECE7204604F016F80346002864
:10567000F2D106222146684603F056FD0346EBE7C9
:10568000684603F05DFFE8E744E9002098EB00205E
:1056900010B5194C43F610712046FFF716FA204654
:1056A000FFF7FEF9154800F0CDFA0122144915481C
:1056B00003F012FD08B1002010BD0022104911486E
:1056C00003F00AFD104B022200212046FFF778FB71
:1056D000032200212046FFF7E9FA2046FFF78CFB62
:1056E0004FF480720021094B186805F079FE012003
:1056F000074B1870E0E700BFA8170020282C01080E
:1057000044E9002098EB0020482C01087401002097
:10571000A5170020F8B5514B1C780CB92046F8BDF0
:10572000FFF77AFD03460028F8D000F47F42B2F577
:10573000704FF3D0001200F47F40DBB21843484BA7
:105740009D7D662851D027DD76287FD04EF25A0302
:10575000984223D1424E3046FFF757FB414B05227A
:1057600000213046FFF72CFB3F4F3E683046FBF7E9
:10577000A7F9024631183D4B1868B0501B790B71E0
:105780003868FFF753FF002846D00024334B1C70C5
:10579000204600F07DFBC1E75A28DBD0FFF768FD0B
:1057A0002F4B9B7D324A12789342B7D20028B5D056
:1057B0005C28B3D02F28B1D03A28AFD02A28ADD05A
:1057C0003F28ABD02228A9D03C28A7D03E28A5D07E
:1057D0007C28A3D027490870234A1268D05400239C
:1057E0004B701F48FFF7DEFA98E7002D96D01C4E4D
:1057F000691E214BF27DC9B23046FFF7E1FAB17D57
:105800000139F27DC9B23046FFF750FAB37D164A2E
:1058100012680021D15481E7114E4FF44471304693
:10582000FFF753F9154B052200213046FFF7C8FA60
:1058300043F610713046FFF748F9032229463046F7
:10584000FFF734FA3046FFF7D7FA67E70024034B37
:105850001C70204600F01CFB60E700BFA51700206D
:10586000A8170020B82B010874010020D42B0108D0
:105870006E01002010580020B42B0108DC2B010819
:105880002DE9F043E1B000F0D5FA514C43F6107128
:105890002046FFF71AF92046FFF702F94D4B9B6AA5
:1058A00010221A704C4800F0CDF901224B494C48A7
:1058B00003F012FC20B10026304661B0BDE8F08351
:1058C000484B00221A80484B484A02A94AA803F0D4
:1058D000D2FED8B90024142C3ADC9DF82230002BDB
:1058E00038D0434B18684FF480720DF1220100EB61
:1058F000042006F057F93B4A13880133138002A9AC
:105900004AA803F0A1FE38BB0134E4E70026354B7A
:10591000B3F90010002921DC0124072C26DCE7B2B2
:10592000DFF8DC80DFF8DC90294D43463A4699F8F1
:1059300000102846FFF744FA99F800104900013199
:1059400043463A46C9B22846FFF73AFA0134E4E73B
:105950000126DCE70126DAE70026D8E7254B4FF4DD
:1059600080722348006805F091FDD5E700251D4BA6
:10597000B3F90030AB421ADD0DF106020DF107015B
:10598000E8B2FFF799FD9DF807400134E4B29DF8B5
:105990000670174B186800EB0520FFF7A5FD0346BE
:1059A0003A4621460A48FFF70BFA0135DFE7124B6A
:1059B0001878FFF7B5FD00220849094803F08CFB71
:1059C000002E3FF479AF0D4B01221A7074E700BF2F
:1059D000A8170020DC170020F02B010844E9002064
:1059E00098EB0020A2170020182C0108202C010899
:1059F0007001002071540008A6170020A417002091
:105A0000242C01086E01002010B582B03F4B1C7899
:105A100014B9204602B010BDFFF7FEFB0346002874
:105A2000F7D000F47F42B2F5704FF2D1384AB2F9A4
:105A30000010C8B21A1202F47F42DBB213434EF2D6
:105A40006B02934249D023DD4EF2740293424AD056
:105A50004EF27502934230D04EF27202934232D02F
:105A60002B4BB3F900309842D3D00DF106020DF163
:105A70000701FFF721FD274B9DF806209DF8071031
:105A80002548FFF79DF9224B1878FFF749FDC0E73D
:105A9000762B33D04EF25A02934201D05A2BDFD1EB
:105AA0001E4B186800EB0120FFF7A0FD0024174BE8
:105AB0001C70204600F0ECF9ABE70029D0DD01397D
:105AC000134B1980CCE7164BB3F90030013B9942D8
:105AD000C6DA01310E4B1980C2E70629C0DD07394D
:105AE0000B4B1980BCE701F108030D4AB2F9002005
:105AF0009342B5DC0731064B1980B1E70024034B14
:105B00001C70012000F0C4F983E700BFA417002037
