:020000040800F2
:1000000000BC0120F5A00008F99B0008FB9B00083C
:10001000FD9B0008FF9B0008019C000800000000F9
:10002000000000000000000000000000039C000829
:10003000059C000800000000ED080020079C000857
:1000400045A1000845A1000845A1000845A10008F8
:1000500045A1000845A1000845A1000845A10008E8
:1000600045A1000845A1000845A1000845A10008D8
:1000700045A1000845A1000845A1000845A10008C8
:1000800045A1000845A1000845A1000845A10008B8
:1000900045A1000845A1000845A1000845A10008A8
:1000A00045A1000845A1000845A1000845A1000898
:1000B00045A1000897070020A907002045A10008D6
:1000C00045A1000845A1000845A1000845A1000878
:1000D00045A1000845A1000845A1000845A1000868
:1000E00045A1000845A1000845A1000845A1000858
:1000F00045A1000845A1000845A1000845A1000848
:1001000045A10008159C000845A1000845A100086C
:1001100045A1000845A1000845A1000845A1000827
:1001200045A1000845A1000845A1000845A1000817
:1001300045A1000845A1000845A1000845A1000807
:1001400045A1000845A1000845A10008259C00081C
:1001500045A1000845A1000845A1000845A10008E7
:1001600045A1000845A1000845A1000845A10008D7
:1001700045A1000845A1000845A1000800000000B5
:0801800045A1000845A100089B
:1001900010B5054C237833B9044B13B10448AFF3C1
:1001A00000800123237010BDC00A00200000000061
:1001B00058B7000808B5034B1BB103490348AFF318
:1001C000008008BD00000000C40A002058B70008E5
:1001D00053B94AB9002908BF00281CBF4FF0FF31AE
:1001E0004FF0FF3000F072B9ADF1080C6DE904CEAC
:1001F00000F006F8DDF804E0DDE9022304B0704702
:100200002DE9F047089E04468846002B4BD18A42D0
:10021000154667D9B2FA82F24AB1C2F1200701FA53
:1002200002F320FA07F7954047EA030894404FEAA3
:10023000154E230CB8FBFEF71FFA85FC0EFB178842
:1002400043EA084307FB0CF1994209D9EB1807F17F
:10025000FF3080F01B81994240F21881023F2B440D
:100260005B1AA4B2B3FBFEF00EFB103344EA034466
:1002700000FB0CFCA44509D92C1900F1FF3380F0D8
:100280000781A44540F2048102382C4440EA07402B
:10029000A4EB0C0400271EB1D4400023C6E90043A0
:1002A0003946BDE8F0878B4209D9002E00F0EB807B
:1002B0000027C6E9000138463946BDE8F087B3FAA1
:1002C00083F7002F47D18B4202D3824200F2FA809B
:1002D000841A61EB030301209846002EE0D0C6E9A2
:1002E0000048DDE702B9FFDEB2FA82F2002A40F0F0
:1002F0008F80491B4FEA154E1FFA85F80127B1FB85
:10030000FEFC230C0EFB1C1143EA014308FB0CF11D
:10031000994207D9EB180CF1FF3002D2994200F252
:10032000CD808446591AA3B2B1FBFEF00EFB101427
:1003300043EA044408FB00F8A04507D92C1900F152
:10034000FF3302D2A04500F2B6801846A4EB0804A1
:1003500040EA0C409FE7C7F1200CBB4022FA0CFE9C
:100360004EEA030E01FA07F420FA0CF521FA0CF319
:100370004FEA1E482543B3FBF8F92C0C08FB193350
:100380001FFA8EFA44EA034309FB0AF49C4202FA7C
:1003900007F200FA07F10BD91EEB030309F1FF3056
:1003A00080F087809C4240F28480A9F10209734466
:1003B0001B1BADB2B3FBF8F008FB103345EA034456
:1003C00000FB0AFAA24508D91EEB040400F1FF3332
:1003D0006BD2A24569D90238744440EA0940A0FBB7
:1003E0000289A4EB0A044C45C2464B4654D351D073
:1003F000002E69D0B1EB0A0564EB030404FA0CFC8F
:10040000FD40FC404CEA0505C6E90054002747E7DB
:10041000C2F1200320FA03F7954001FA02F021FA15
:1004200003F34FEA154E3843010CB3FBFEF71FFAF6
:1004300085F80EFB173341EA034107FB08F38B42B3
:1004400004FA02F407D9691807F1FF3C2FD28B4256
:100450002DD9023F2944CB1A81B2B3FBFEF00EFB2B
:10046000103341EA034100FB08F38B4207D96918B6
:1004700000F1FF3C17D28B4215D902382944C91A22
:1004800040EA07473BE73746304609E70746E7E6D5
:100490001846FBE64145ABD2B8EB020A69EB0E0207
:1004A00001381346A4E76046E9E7184695E7674632
:1004B000D1E781467CE702382C4447E7ACF1020CD7
:1004C0002B442FE7384608E73746E9E6704700BF78
:1004D000034613F8012B002AFBD1181A0138704784
:1004E00001F0FF01102A2BDB10F0070F08D010F8E5
:1004F000013B013A8B422DD010F0070F42B3F6D1E9
:10050000F0B441EA012141EA014122F007047FF001
:1005100000070023F0E80256083C85EA010586EA58
:10052000010685FA47F5A3FA87F586FA47F6A5FA94
:1005300087F68EB9EED1F0BC01F0FF0102F00702A0
:1005400032B110F8013B013A83EA010313B1F8D14B
:100550000020704701387047002D06BF354603382C
:10056000073815F0010F07D1013015F4807F02BF65
:10057000013015F4C03F0130F0BC0138704700BFB6
:1005800010B504460E4B18784FF47A73B3FBF0F3B2
:100590000C4A1068B0FBF3F000F0A6F868B90F2C15
:1005A00001D901200AE0002221464FF0FF3000F07F
:1005B0005DF8034B5C60002000E0012010BD00BF2F
:1005C000040000202001002008B50B4B1A6842F4FB
:1005D00000721A601A6842F480621A601A6842F463
:1005E00080721A60032000F02FF80120FFF7C8FF87
:1005F00009F06CFA002008BD003C0240034A116873
:10060000034B1B780B441360704700BFD0E0002001
:1006100004000020014B1868704700BFD0E00020A4
:1006200038B50446FFF7F6FF0546B4F1FF3F02D0A8
:10063000044B1B781C44FFF7EDFF401BA042FAD38C
:1006400038BD00BF04000020074AD36823F4E063EC
:100650001B041B0C43F0BF6343F40033000200F49F
:10066000E0600343D360704700ED00E030B4164B08
:10067000DB68C3F30223C3F10704042C28BF04245E
:100680001D1D062D8CBF033B00234FF0FF3505FADF
:1006900004F421EA0401994005FA03F322EA030372
:1006A0001943002809DB0901C9B200F1604000F5D7
:1006B000614080F8001330BC704700F00F00090162
:1006C000C9B2024B1954F6E700ED00E014ED00E06A
:1006D000420900F01F00012303FA00F0014B43F828
:1006E0002200704700E100E00138B0F1807F0AD2BB
:1006F000064B5860064AF02182F8231000209860CB
:1007000007221A6070470120704700BF10E000E028
:1007100000ED00E00428044A13680CBF43F0040312
:1007200023F004031360704710E000E0704708B541
:10073000FFF7FCFF08BD90F83530DBB2022B03D089
:100740008023436501207047052380F83530026817
:10075000136823F001031360002070472DE9F04F68
:1007600083B000256A4FDFF8B4C16A4EDFF8B0915C
:10077000DFF8B0A144E0EC0800EB8404D4F820E0FA
:1007800005F007024FEA820B0F2202FA0BF22EEA63
:10079000020E0A6902FA0BF242EA0E0222623BE002
:1007A000002202FA0BF242EA0E029A6033686FEA04
:1007B00008044A6812F4803F0CBF234048EA030350
:1007C000336073684A6812F4003F0CBF234048EA64
:1007D00003037360B2684B6813F4801F0CBF2240A0
:1007E00048EA0202B260F3684A6812F4001F0CBFC4
:1007F000234048EA0303F3600135102D00F08580A3
:100800000123AB400A6803EA02084345F4D14A6871
:1008100022F01002022AAED004684FEA450E0322ED
:1008200002FA0EF2D24302EA040B4C6804F003040D
:1008300004FA0EF444EA0B0404604C6824F010043B
:10084000013C012C12D8846802EA040BCC6804FA3B
:100850000EF444EA0B048460446824EA030B4C68F9
:10086000C4F30013AB4043EA0B034360C3681A4070
:100870008B6803FA0EF31343C3604B6813F0805F79
:10088000BAD0002301937B6C43F480437B647B6C80
:1008900003F480430193019B25F0030303F180439C
:1008A00003F59C339C6805F003024FEA820B0F228C
:1008B00002FA0BF224EA020E60453FF471AF48459C
:1008C00017D0504517D0144A904216D002F58062D6
:1008D000904214D002F58062904212D002F58062FC
:1008E000904210D002F5806290420CBF072208228D
:1008F00057E7012255E7022253E7032251E704227A
:100900004FE705224DE706224BE703B0BDE8F08F25
:1009100000380240003C0140000C02400000024050
:100920000004024000080240002865D0F0B58BB0FA
:100930000546032380F8B93309F032FA286802F03B
:10094000BFFC2C4654F8107B6E460FCC0FC60FCC64
:100950000FC694E8030086E803002B1D0ECB384633
:1009600002F06AFC0021286802F0B0FC2B462A46FF
:10097000002101200C4682F8390082F83810D18716
:1009800082F83B4014645464D46401311C320F2952
:10099000F1D100210A4683F8F92183F8F811D987AB
:1009A00083F8FB21C3F80022C3F80422C3F80C2209
:1009B0002C6801F1400004EB8004626001311C33BB
:1009C0000F29E8D12C4654F8107B6E460FCC0FC689
:1009D0000FCC0FC694E8030086E803002B1D0ECB56
:1009E000384602F089FC012385F8B933286803F002
:1009F0005EF800200BB0F0BD0120704790F8B833CE
:100A0000012B0ED010B50446012380F8B8330068DE
:100A100003F041F8206802F04DFC002084F8B80390
:100A200010BD0220704700002DE9F04F89B0044648
:100A30000668304603F077F810B109B0BDE8F08FD2
:100A40008046206803F03FF80028F6D0206803F0C5
:100A50003AF810F0020F04D02268536903F0020341
:100A60005361206803F02FF810F4002F75D1C346AE
:100A7000206803F028F810F4802F40F0CC80206824
:100A800003F021F80028C0F28881206803F01BF8E9
:100A900010F4006F0AD0D6F8083813F0010F40F0B8
:100AA0008B812268536903F400635361206803F06B
:100AB0000AF810F4805F40F08381206803F003F8A7
:100AC00010F4005F40F0C281206802F0FCFF10F0DB
:100AD000100F14D02268936923F010039361356AD4
:100AE00005F00F07C5F34343022B00F03F82062BAE
:100AF00000F05C822268936943F0100393612068E0
:100B000002F0E1FF10F0080F40F06282206802F06E
:100B1000DAFF10F4801F40F06482206802F0D3FFF7
:100B200010F4001F40F06882206802F0CCFF10F043
:100B3000804F40F06C82206802F0C5FF10F0040F77
:100B40003FF47BAF23685D6815F0040F40F06882C6
:100B5000226853682B4353606FE7206802F0B7FFA9
:100B60000546002855D0C34606F5306920E0CBEB9A
:100B7000CB0304EB8303D3F800121269C2F3120211
:100B80008A1AC3F81022D3F804220A44C3F80422B4
:100B900022E017F0080F34D117F0100F03D009EB43
:100BA0004B1310229A600BF1010B6D083FF460AFFC
:100BB00015F0010FF7D05FFA8BFA5146206802F06A
:100BC00096FF074610F0010FE3D009EB4B1201230B
:100BD00093602369012BCAD05146204609F01CF9C5
:100BE0002369012BD5D1BBF1000FD2D1D4F80C323F
:100BF000002BCED104F56F720121206802F0B3FF03
:100C0000C7E7204609F000F909EB4B1308229A6068
:100C1000C2E783462CE7206802F061FF8146002886
:100C200000F0B980A246C34606F510630696CDF8DB
:100C30001C801E462DE0DAF84430DAF840201344D8
:100C4000CAF8443045E015F0080F03D006EB4B130B
:100C500008229A6015F0100F03D006EB4B131022F8
:100C60009A6015F0400F03D006EB4B1340229A60B8
:100C700015F0020F03D006EB4B1302229A6015F019
:100C8000800F3AD10BF1010B0AF11C0A5FEA5909F6
:100C90007DD019F0010FF5D05FFA8BF3039319465D
:100CA000206802F02EFF054610F0010FCBD0069B06
:100CB00003F50062D3F83438012101FA0BF123EA7D
:100CC0000103536306EB4B1301229A60236993429D
:100CD000B1D00399204609F0ABF82369012BB2D1BA
:100CE000BBF1000FAFD1E36C002BACD104F56F72F8
:100CF0000121206802F037FFA5E7206805905746DC
:100D0000DAF84C50DAF85020AB1ADAF840108B427F
:100D100028BF0B46049300F5106808EB4B18D8F871
:100D20001810033389B2B1EB930F22D9954220D921
:100D3000FDB1AD1A3B6C9D4228BF1D460495237C36
:100D40000093ABB2039A796C059802F015FE7B6CA8
:100D50002B447B643A6D2A443A65D8F81830033541
:100D60009BB2B3EB950F04D9FD6C954201D9002DD0
:100D7000DFD1049B002B85D1059BD3F834280121BA
:100D800001FA0BF122EA0102C3F834287AE7069E41
:100D9000DDF81C8073E6834671E6D6F8043823F04C
:100DA0000103C6F80438204609F07AF8226853692E
:100DB00003F00043536168E6204609F059F870E6F5
:100DC00006F500656B6823F001036B601021206855
:100DD00002F03EFB63685BB106F51063FF229A6088
:100DE000C3F8082208F10108203361684145F6D8AC
:100DF0004FF0FF33AB61EB6943F00113EB61236B01
:100E0000DBB1D5F8843043F00B03C5F884306B6C4C
:100E100043F00B036B64D6F8003823F4FE63C6F886
:100E2000003804F56F72217C206802F09CFE226875
:100E3000536903F4805353613FE66B6943F00B033E
:100E40006B612B6943F00B032B61E4E7206802F030
:100E50006EFE2268D36823F47053D360206802F0DA
:100E600020FB90B90023E3604FF4007363612268B4
:100E7000D36843F41053D360204608F0EAFF226899
:100E8000536903F4005353611EE60323E3604023D8
:100E9000636100F02FFD644B0344644A934205D81C
:100EA0002268D36843F47053D360E5E7604B034492
:100EB000604A934205D82268D36843F46053D360F4
:100EC000DAE7A0F57403A3F510535B4A934205D803
:100ED0002268D36843F45053D360CDE7A0F1837305
:100EE000A3F5E743554A934205D82268D36843F4F3
:100EF0004053D360C0E7524B0344524A934205D853
:100F00002268D36843F43053D360B5E74E4B0344B3
:100F10004E4A934205D82268D36843F42053D360E5
:100F2000AAE74B4B03444B4A934205D82268D36847
:100F300043F41053D3609FE7A0F1B773A3F5585360
:100F4000454A934205D82268D36843F40053D360DE
:100F500092E7424B0344424A93422268D36894BFCB
:100F600043F4E05343F4C053D36085E747F6F0738E
:100F70001D423FF4BFAD2D094FEAC709A9EB070891
:100F800004EB8808C5F30A02D8F80412304602F0D0
:100F900009FDC5F30A05D8F804322B44C8F8043219
:100FA000D8F810321D44C8F81052A3E5082204F501
:100FB0006F71304602F0F6FCFA00D11B04EB8101A0
:100FC000C5F30A13D1F810221344C1F8103291E589
:100FD000204608F038FF2268536903F00803536184
:100FE00094E55FFA8BF1204608F066FF22685369AA
:100FF00003F48013536190E55FFA8BF1204608F00B
:1010000055FF2268536903F4001353618CE52046B1
:1010100008F058FF2268536903F0804353618AE562
:10102000204608F055FF93E5405327FFFF340C009E
:10103000401E1BFF3F420F007F4F12001FD61300C0
:1010400060B6E5FE5FE3160000D3CEFE3F771B00DF
:10105000C05BB3FEBF9121001F753800E05459FEFC
:10106000DF9C410090F8B833012B0BD010B504463B
:10107000012380F8B833006802F0FDFC002084F8FA
:10108000B80310BD02207047F8B511F0800F26D1CB
:1010900001F07F04E500291B00EB810101F5FC71E3
:1010A0002E1B00EB860686F8F841002786F8F971BA
:1010B000C6F8002286F8FB31022B04BF00230B7117
:1010C00090F8B833012B1ED00446012380F8B833C2
:1010D000006802F005FA002084F8B803F8BD01F0BA
:1010E0007F04E500291B00EB810138312E1B00EB4A
:1010F000860686F83840012786F83970326486F80B
:101100003B30F487D8E70220E8E74AB2002A01F032
:101110007F03C3EBC30300EB8303B4BF383303F592
:10112000FC7301F07F011970D20F5A7090F8B82348
:10113000012A0CD010B50446012280F8B8231946C4
:10114000006802F013FA002084F8B80310BD0220F2
:10115000704738B501F07F05EC00611B00EB8101A1
:1011600001F5FC71641B00EB8404C4F80422C4F88C
:101170000C320023C4F8103284F8F93184F8F851A5
:101180000369012B06D065B1DAB2006802F054FAA7
:10119000002038BDC5EBC50400EB8404C4F8082268
:1011A000F1E7DAB2006802F04DFBF1E701F00F0160
:1011B000C1EBC10100EB8101B1F81002704738B5F5
:1011C00001F07F05EC00611B00EB81013831641BED
:1011D00000EB84046264E36400232365012384F844
:1011E000393084F838500369012B06D05DB1DAB28A
:1011F000006802F021FA002038BDC5EBC50400EB01
:101200008404A264F2E7DAB2006802F01BFBF2E7A2
:1012100038B54AB2002A1DDBC1EBC10300EB8303E2
:1012200003F5FC7301249C7001F07F041C70D20F45
:101230005A7090F8B823012A1BD00546012280F885
:10124000B8231946006802F0C1FB5CB1002085F8A4
:10125000B80338BD01F07F03C3EBC30300EB830386
:101260003833DFE705F56F72297C286802F07BFCD4
:10127000ECE70220EDE710B54AB2002A1CDBC1EB17
:10128000C10300EB830303F5FC7300249C7001F0A1
:101290007F011970D20F5A7090F8B823012A13D029
:1012A0000446012280F8B8231946006802F0B6FB14
:1012B000002084F8B80310BD01F07F03C3EBC30323
:1012C00000EB83033833E0E70220F4E730B405682D
:1012D0006C6AE1B10B46A96A04EB1144591E00295E
:1012E0000CDD00231846403005EB8000406804EB1D
:1012F00010440133DBB218468B42F4DB44EA02446B
:10130000403105EB81056C60002030BC704744EA39
:101310000244AC62F8E7036859620020704700009D
:10132000002800F0BD812DE9F04182B00446036839
:1013300013F0010F3BD0A84B9B6803F00C03042B68
:101340002CD0A54B9B6803F00C03082B21D06368BD
:10135000B3F5803F4FD0B3F5A02F52D09E4B1A6803
:1013600022F480321A601A6822F480221A606368BC
:10137000002B50D0FFF74EF90646974D2B6813F41B
:10138000003F14D1FFF746F9801B6428F6D90320EB
:101390008BE1914B5B6813F4800FD8D08E4B1B68A8
:1013A00013F4003F03D06368002B00F07B812368B7
:1013B00013F0020F55D0884B9B6813F00C0F3ED0F2
:1013C000854B9B6803F00C03082B33D0E368002B9C
:1013D00068D0824B01221A60FFF71CF906467E4D49
:1013E0002B6813F0020F54D1FFF714F9801B022869
:1013F000F6D9032059E1784A136843F48033136027
:10140000B5E7754B1A6842F480221A601A6842F4F4
:1014100080321A60ABE7FFF7FDF806466E4D2B6889
:1014200013F4003FC3D0FFF7F5F8801B6428F6D90A
:1014300003203AE1684B5B6813F4800FC6D1664B1A
:101440001B6813F0020F04D0E368012B01D00120C8
:101450002BE1614A1368216923F0F80343EAC103D1
:101460001360236813F0080F40D0636963B35C4BCB
:1014700001221A60FFF7CEF80646574D6B6F13F046
:10148000020F33D1FFF7C6F8801B0228F6D90320DC
:101490000BE1514A1368216923F0F80343EAC103C1
:1014A0001360DEE74D4B00221A60FFF7B3F80646E3
:1014B000494D2B6813F0020FD3D0FFF7ABF8801B18
:1014C0000228F6D90320F0E0454B00221A60FFF70E
:1014D000A1F80646404D6B6F13F0020F06D0FFF7E0
:1014E00099F8801B0228F6D90320DEE0236813F068
:1014F000040F7AD0384B1B6C13F0805F34D100237B
:101500000193354B1A6C42F080521A641B6C03F045
:1015100080530193019B0125324B1B6813F4807F9C
:1015200024D0A368012B35D0052B39D02A4B1A6F54
:1015300022F001021A671A6F22F004021A67A368E8
:10154000002B37D0FFF766F88046234E41F28837EC
:10155000336F13F0020F47D1FFF75CF8A0EB0800E0
:10156000B842F5D90320A0E00025D5E71D4A13684D
:1015700043F480731360FFF74DF80746194E336844
:1015800013F4807FCDD1FFF745F8C01B0228F6D9B0
:1015900003208AE0104A136F43F001031367CEE77C
:1015A0000D4B1A6F42F004021A671A6F42F00102E3
:1015B0001A67C4E7FFF72EF88046074E41F28837D6
:1015C000336F13F0020F0FD0FFF724F8A0EB0800E1
:1015D000B842F5D9032068E00038024000004742D5
:1015E000800E474200700040E5B9A369002B5BD034
:1015F000304A926802F00C02082A59D0022B17D008
:101600002D4B00221A60FFF705F80546294C236888
:1016100013F0007F42D0FEF7FDFF401B0228F6D9F1
:10162000032042E0234A136C23F080531364DCE769
:10163000214B00221A60FEF7EDFF06461D4D2B6878
:1016400013F0007F06D0FEF7E5FF801B0228F6D9D5
:1016500003202AE0E369226A1343626A43EA8213A1
:10166000E26A43EA0263A26A5208013A43EA024389
:10167000104A5360104B01221A60FEF7CBFF05465B
:101680000C4C236813F0007F06D1FEF7C3FF401B0C
:101690000228F6D9032008E0002006E0002004E03C
:1016A00001207047012000E0002002B0BDE8F08179
:1016B0000120FAE70038024060004742324B9B6845
:1016C00003F00C03042B03D0082B03D02F487047E2
:1016D0002F4870472DE9F04B2B4B5A6802F03F0220
:1016E0005B6813F4800F2BD0274B5B68C3F3881320
:1016F0001E4600275C010025E41A65EB0705A901D9
:1017000041EA9461A001001B61EB0501CB0043EAB3
:101710005073C400A01943EB07014B0243EAD053B6
:101720004402204619460023FEF752FD164B5B6823
:10173000C3F3014301335B00B0FBF3F0BDE8F08B72
:10174000114B5B68C3F388131E4600275C0100251C
:10175000E41A65EB0705A90141EA9461A001001BA9
:1017600061EB0501CB0043EA5073C400A01943EBC1
:1017700007018B0243EA9053840220461946002356
:10178000FEF726FDD2E700BF003802400024F40037
:1017900000127A00002800F0A0802DE9F0410446F4
:1017A000504B1B6803F00F038B420AD2CBB24D4A59
:1017B0001370136803F00F038B4202D00120BDE8C1
:1017C000F081236813F0020F17D013F0040F04D038
:1017D000454A936843F4E0539360236813F0080F7D
:1017E00004D0414A936843F4604393603E4A93684F
:1017F00023F0F003A068034393600D46236813F0C1
:10180000010F33D06268012A22D0931E012B26D902
:10181000354B1B6813F0020F61D033498B6823F0FE
:10182000030313438B60FEF7F5FE80462E4E41F214
:101830008837B36803F00C036268B3EB820F15D0EE
:10184000FEF7E8FEA0EB0800B842F2D90320B6E7A5
:10185000254B1B6813F4003FDFD10120AFE7224B7B
:101860001B6813F0007FD8D10120A8E71D4B1B682F
:1018700003F00F03AB4209D9EAB21A4B1A701B6886
:1018800003F00F03AB4201D0012098E7236813F067
:10189000040F06D0144A936823F4E053E1680B4325
:1018A0009360236813F0080F07D00F4A93682169EB
:1018B00023F4604343EAC1039360FFF7FFFE0A4B42
:1018C0009B68C3F30313094AD35CD840084B1860E4
:1018D0000120FEF755FE002071E70120704701202E
:1018E0006DE700BF003C024000380240C4BB000866
:1018F00020010020014B1868704700BF2001002024
:10190000F0B583B00446036813F0050F06D12368D1
:1019100013F0020F2ED1002003B0F0BD494B00227E
:101920001A60FEF777FE0646474D2B6813F0006FEE
:1019300006D0FEF76FFE801B0228F6D90320EBE7E6
:101940006268A3681B0743EA82133F4AC2F88430E7
:101950003C4B01221A60FEF75DFE06463A4D2B68AD
:1019600013F0006FD3D1FEF755FE801B0228F6D985
:101970000320D1E700230193334B1A6C42F08052CD
:101980001A641B6C03F080530193019B2F4A136868
:1019900043F480731360FEF73DFE06462B4D2B6823
:1019A00013F4807F06D1FEF735FE801B0228F6D99E
:1019B0000320B1E7244B1B6F13F4407312D0E2688D
:1019C00002F440729A420DD01F4B1A6F22F44072FB
:1019D0001F4901200860002008601A671B6F13F080
:1019E000010F13D1E36803F44072B2F5407F1ED0BB
:1019F000154A936823F4F8139360134A116FE36850
:101A0000C3F30B030B431367002085E7FEF702FEC9
:101A100007460D4D41F288362B6F13F0020FE1D1CE
:101A2000FEF7F8FDC01BB042F6D9032074E7064963
:101A30008A6822F4F81223F0704323F440731343AE
:101A40008B60DAE7680047420038024000700040CF
:101A5000400E474238B504460268D36823F0A0031D
:101A6000D360FEF7D7FD05462368DB6813F0200F2F
:101A700007D1FEF7CFFD401BB0F57A7FF4D90320E4
:101A800000E0002038BD38B50368DA6812F0400F76
:101A900001D0002038BD04464FF0FF32DA60FEF777
:101AA000B9FD05462368DB6813F0400F07D1FEF748
:101AB000B1FD401BB0F57A7FF4D90320EAE700209E
:101AC000E8E738B500285CD00446437F002B40D0BF
:101AD000022363772368CA225A62236853225A6218
:101AE0002046FFF7D0FF0546002836D122689368CC
:101AF00023F4E00323F04003936022689168636855
:101B000020690343606903430B4393602368E268E1
:101B10001A6122681369A16843EA014313612268CC
:101B2000D36823F08003D36023689B6813F0200FF1
:101B30001BD02268136C23F4802313642268136C77
:101B4000A1690B4313642368FF225A620123637760
:101B500009E0037708F004F8BAE72368FF225A6225
:101B6000042363770125284638BD2046FFF772FF1E
:101B70000028DED02368FF225A6204236377012500
:101B8000F1E70125EFE7092809D9002301330A38D5
:101B9000C0B20928FAD840EA0310C0B27047002347
:101BA000F9E7F8B5037F012B39D00E46044601232F
:101BB000037702234377A2BB4B7813F0100F03D0B7
:101BC00023F010030A334B70F078FFF7DCFF074671
:101BD0007078FFF7D8FF0546B078FFF7D4FF337869
:101BE00040EA433040EA074040EA052523E0236805
:101BF000FF225A62042363770023237701263046AD
:101C0000F8BD2046FFF726FF002830D02368FF22CA
:101C10005A6204236377002323770126EFE7022625
:101C2000EDE7CD784878000240EA05408D782843FA
:101C30000D7840EA45352368CA225A622368532248
:101C40005A622046FFF71FFF06460028CFD12368BF
:101C500025F07F4525F0C0055D602268D36823F03C
:101C60008003D36023689B6813F0200FC9D02368DA
:101C7000FF225A620123637700232377BFE7F8B579
:101C8000037F012B7AD00D460446012303770223FC
:101C90004377002A48D103689B6813F0400F04BFC4
:101CA0000023CB700878FFF76EFF07466878FFF7D0
:101CB0006AFF0646A878FFF766FFEB7840EA034024
:101CC00040EA074040EA06262368CA225A6223688F
:101CD00053225A622046FFF7D6FE0746002835D128
:101CE000236806F07F3626F0FE461E602268936861
:101CF00023F48023936022689168EB68286903438A
:101D00000B4393602268D36823F08003D360236879
:101D10009B6813F0200F23D02368FF225A6201230F
:101D200063770023237719E003689B6813F0400F63
:101D300004BF0023CB700B784878000240EA0340D0
:101D40008B781843CE7840EA0646BDE72368FF2229
:101D50005A62042363770023237701273846F8BDAE
:101D60002046FFF777FE0028D6D02368FF225A626C
:101D700004236377002323770127EFE70227EDE7AA
:101D8000030903EB830300F00F0000EB4300C0B234
:101D9000704770B503689B6A4B6003681B69C3F3A7
:101DA0000E038B6003681B6803F07F3323F0FE4350
:101DB0001D0C05F03F000870C3F306264E70DCB220
:101DC0008C7005F04005CD705AB90D46FFF7D8FF6D
:101DD00028703046FFF7D4FF68702046FFF7D0FF29
:101DE000A870002070BD70B503685B6823F07F4366
:101DF00023F0C003180CC870C3F304264E70DDB284
:101E00008D70C3F342330B705AB90C46FFF7B8FF1D
:101E1000E0703046FFF7B4FF60702846FFF7B0FF70
:101E2000A070002070BD2DE9F04389B004460F4634
:101E3000FEF7F0FB0646002300930193082120687B
:101E400000F0E9FF054618B1284609B0BDE8F08367
:101E5000216D0904206801F0F1F805460028F3D14E
:101E60004FF0FF330293082303933023049302239C
:101E70000593002306930123079302A9206800F02D
:101E8000B5FF206801F023F905460028DCD1814622
:101E900040F22A4805E0FEF7BDFB801BB0F1FF3F92
:101EA00045D02068436B13EA080F0DD1436B13F440
:101EB000001FF0D000F0C4FE08AB03EB890343F829
:101EC000200C09F10109E6E7436B13F0080F25D157
:101ED000436B13F0020F24D1436B13F0200F23D177
:101EE00040F2FF538363009B1A0E42EA0362190219
:101EF00001F47F010A431B0A03F47F4313437B6011
:101F0000019B1A0E42EA0362190201F47F010A439F
:101F10001B0A03F47F4313433B6095E70825856361
:101F200092E7022585638FE7202585638CE74FF0D4
:101F3000004589E72DE9F04786B004460D46164670
:101F40001F46FEF767FB6DB1804694F83430DBB274
:101F5000012B0DD0A36B43F00053A363012006B007
:101F6000BDE8F087A36B43F00063A3630120F6E7AD
:101F70000023A363F319E26D93421BD8032384F873
:101F8000343023680022DA62636C012B18BF7602BA
:101F90004FF40071206800F03EFF034680B12268D4
:101FA00040F2FF519163A06B1843A063012084F8B5
:101FB0003400D4E7A36B43F00073A3630120CEE7A2
:101FC0004FF0FF3300937B0201939023029302238F
:101FD000039300230493012305936946206800F0CE
:101FE00005FF012F09D9022323633146206800F041
:101FF00042FF48B940F22A3A1BE0012323633146ED
:10200000206800F020FFF4E7236840F2FF529A6353
:10201000A36B1843A063012084F834009FE72035A8
:102020000E9BD3B1FEF7F6FAA0EB08000E9B984288
:1020300013D22068436B13EA0A0F1BD1436B13F4CE
:10204000004FEDD02E1F05F11C09206800F0F8FDAF
:1020500046F8040F4E45F8D1E1E7236840F2FF52FD
:102060009A63A36B43F00043A363012384F83430E5
:10207000032074E7436B13F4807F07D0012F05D949
:10208000636C032B02D000F03FFF50BB23685A6BF8
:1020900012F0080F30D15A6B12F0020F37D15A6B81
:1020A00012F0200F3ED12068436B13F4001F44D080
:1020B00000F0C6FD45F8040B0E9B33B1FEF7AAFAFB
:1020C000A0EB08000E9B9842EDD3236840F2FF522C
:1020D0009A63A36B43F00043A363012084F83400A8
:1020E0003DE7236840F2FF519963A36B0343A36369
:1020F000012084F8340032E740F2FF529A63A36B68
:1021000043F00803A363012084F8340027E740F27A
:10211000FF529A63A36B43F00203A363012084F888
:1021200034001CE740F2FF529A63A36B43F0200394
:10213000A363012084F8340011E740F2FF53836366
:10214000012384F83430002009E72DE9F04786B0F8
:1021500004460D4616461F46FEF75CFA6DB18046F2
:1021600094F83430DBB2012B0DD0A36B43F0005355
:10217000A363012006B0BDE8F087A36B43F00063C2
:10218000A3630120F6E70023A363F319E26D9342F2
:1021900024D8032384F8343023680022DA62636C85
:1021A000012B18BF76024FF40071206800F033FE57
:1021B0000346C8B9012F22D9202323633146206862
:1021C00000F089FE10B3236840F2FF529A63A36BBC
:1021D0001843A063012084F83400CBE7A36B43F0DD
:1021E0000073A3630120C5E7226840F2FF519163A9
:1021F000A06B1843A063012084F83400BAE71023D1
:1022000023633146206800F04EFEDBE74FF0FF33DA
:1022100000937B0201939023029300230393049382
:10222000012305936946206800F0E0FD40F21A3A68
:1022300009E020350E9BD3B1FEF7ECF9A0EB0800C6
:102240000E9B984213D22068436B13EA0A0F19D1F0
:10225000436B13F4804FEDD02E4605F12009314633
:10226000206800F0F0FC04364E45F8D1E1E7236821
:1022700040F2FF529A63A36BA363012384F83430C6
:10228000032077E7436B13F4807F07D0012F05D934
:10229000636C032B02D000F037FEB8B923685A6B89
:1022A00012F0080F1DD15A6B12F0020F24D15A6B95
:1022B00012F0100F2BD040F2FF529A63A36B43F041
:1022C0001003A363012084F8340053E7236840F22D
:1022D000FF519963A36B0343A363012084F8340087
:1022E00048E740F2FF529A63A36B43F00803A363ED
:1022F000012084F834003DE740F2FF529A63A36B5B
:1023000043F00203A363012084F8340032E740F273
:10231000FF529A63012384F8343000202AE7704783
:1023200030B4436E9A0F0A70C3F383624A70C3F3EA
:1023300001638B7090F86630CB7090F865300B714C
:1023400090F864304B7190F86B301B01CB80836E3A
:10235000CC88C3F303522243CA80C3F303430B72F6
:1023600090F86930DA094A72C3F380128A72C3F3B3
:102370004012CA72C3F300120A7300224A73426CFD
:10238000002A40F08E809B0203F440630B610A69CF
:10239000836E9B0003F47F7313430B61C36E0A6962
:1023A00042EA93720A61C3F3C2620A75C3F302631D
:1023B0004B75C36EC3F342528A75C3F38242CA752A
:1023C000DB0B03F006030B76C36EC3F307220C7E10
:1023D000C3F3C03323430B760B69013343650C7E93
:1023E0000234A34043650C7AE5B20124AC40846515
:1023F000640A03FB04F3C3654FF400730366C2F37E
:1024000080134B76520002F07E028A76C36E8A7E7B
:10241000C3F3C01422438A7603F07F03CB76036FA5
:10242000DA0F0A77C3F341724A77C3F382628A777D
:102430009B0D03F00C03CB77036FCA7FC3F381546A
:102440002243CA77C3F3405281F82020002281F84A
:102450002120C3F3004381F82230036FC3F3C0345B
:1024600081F82340C3F3803481F82440C3F340341F
:1024700081F82540C3F3003481F82640C3F381245A
:1024800081F82740C3F3012381F82830036FC3F399
:10249000460381F82930012381F82A30104630BCE8
:1024A0007047012A0CD0036840F2FF529A63836B95
:1024B00043F080538363012280F834201046EEE716
:1024C000836E1B0403F47C130B610B6990F86F207F
:1024D00043EA02230B610A6990F86E3013430B61E3
:1024E00090F86D200B6901339B024365C3654FF47F
:1024F00000738365036682E7F0B599B00446002552
:10250000129513951495159516957623179318AB78
:1025100013E907008DE8070012AB0ECB206800F02E
:1025200073FB7F4E3560206800F092FB012333601F
:102530000220FEF775F80695206800F017FD0346A7
:1025400038B1012084F83400A26B1343A36319B09F
:10255000F0BD206800F036FD002856D0A564069B2B
:102560005A1C06924FF6FF72934200F0C480164642
:102570002946206800F062FD002840F0BF8029460F
:10258000206800F073FD002840F0BB8029462068D9
:1025900000F07BFB002807DB069B5A1C0692B34227
:1025A000E6D14FF08073CCE7002363640123ADF8DC
:1025B0001630206800F050FB002800F0A880636C03
:1025C000032B52D10421206800F05FFB000DE06472
:1025D00007A92046FFF7A4FE226D120400232068FD
:1025E00000F0ACFC0246002840F09380234653F8EC
:1025F000105B93E807008DE80700043494E80E00B0
:10260000284600F001FB0020A1E70123A364069BFC
:102610005A1C06924FF6FF72934275D000254FF078
:10262000804617462946206800F008FD034600282A
:1026300087D13146206800F019FD0346002880D17B
:102640002946206800F021FB002807DB069B5A1C66
:102650000692BB42E6D14FF0807372E710F0804FD4
:1026600014BF012300236364A0E7206800F047FD46
:10267000024600284DD10021206800F006FB60676B
:102680000421206800F001FBA0670821206800F009
:10269000FCFAE0670C21206800F0F7FAC4F880002B
:1026A000636C032B8ED00DF11601206800F052FDF3
:1026B000024670BB636C032B84D0BDF816102165F5
:1026C0000904206800F030FD024610BB002120689C
:1026D00000F0DBFA60660421206800F0D6FAA066FC
:1026E0000821206800F0D1FAE0660C21206800F093
:1026F000CCFA206766E74FF0807322E74FF08053F3
:102700001FE74FF080531CE74FF0807319E74FF03D
:102710008062012084F83400A36B1343A36316E79F
:10272000A0802542A8B110B5044690F8343063B1BA
:10273000032384F834302046FFF7DEFE0020A06338
:102740002063012384F8343010BD037707F016FAB4
:10275000EEE701207047436C0B60836C4B60C36CE9
:102760008B60036DCB60436D0B61836D4B61C36DFB
:102770008B61036ECB610020704730B58DB004468D
:102780000D46032380F83430436C032B61D0B1F540
:10279000805F08D0B1F5006F0AD089B3836B43F036
:1027A0000063836359E0836B43F08053836354E099
:1027B000002104910591006800F067FA10F0007F95
:1027C00016D104A92046FFF72EFB034688B9059BC6
:1027D00013F4802F11D0216D0904206800F02EFC25
:1027E000034630B90221206800F059FC034600E09E
:1027F0002B46A06B1843A0632FE04FF08063F8E7EF
:10280000002104910591006800F03FFA10F0007F6C
:1028100016D104A92046FFF706FB034690B9059B95
:1028200013F4803F12D0216D0904206800F006FCEB
:10283000034638B90021206800F031FC034601E06E
:102840004FF40063A06B1843A06306E04FF0806371
:10285000F8E7836B43F080538363A36B43B1236832
:1028600040F2FF529A63012084F834000DB030BD6D
:1028700063680693A3680793E368089309956369FF
:102880000A93A3690B930CAB13E907008DE80700CB
:1028900006AB0ECB206800F0B7F9012384F8343082
:1028A0000020E3E710B50446016D0904006800F05C
:1028B000ABFC38B10346A06B1843A0630020C0F303
:1028C000432010BD0021206800F0DFF9F7E710B5C4
:1028D000846B236C0BB100232364E36B03B110BD45
:1028E0002046FFF7DFFF0023A363012384F8343081
:1028F0000538C0B29842F2D8206800F005FBA36BFF
:102900001843A063A36B1BB92046FFF708FDE6E759
:10291000204603F03EFCE2E710B5846BE36B0BB19D
:102920000023E363236C03B110BD2046FFF7BAFF19
:102930000023A363012384F834300538C0B29842E1
:10294000F2D8206800F0E0FAA36B1843A063A36BF1
:102950001BB92046FFF7E3FCE6E7204603F019FC2D
:10296000E2E7000070B5044603685A6B12F4807FFA
:1029700060D04FF480729A630268D36B23F44E7375
:1029800023F00203D363036B13F0080F2AD0036B09
:1029900013F0020F03D1036B13F0200F04D0206853
:1029A00000F0B2FA034690B9236840F2FF529A63EE
:1029B000012384F83430236B13F0010F03D1236B10
:1029C00013F0020F0AD0204603F0EDFB70BDA26B9E
:1029D0001343A3632046FFF7A2FCE5E7204603F07C
:1029E000DDFBF3E7036B13F0800FEFD0036B13F005
:1029F000200F13D1236B13F0010FE7D1236B13F0DA
:102A0000020FE3D12268D36A23F00803D3620123C3
:102A100084F83430204603F0C1FBD7E7006800F0AB
:102A200073FA0028E6D0A36B0343A3632046FFF7A5
:102A300076FCDFE75A6B12F4804F4CD15A6B12F4DC
:102A4000004F59D1596B40F23A221142BED05A6B15
:102A500012F0020F03D0826B42F0020282635A6BC3
:102A600012F0080F03D0A26B42F00802A2635A6B67
:102A700012F0200F03D0A26B42F02002A2635A6B27
:102A800012F0100F03D0A26B42F01002A2635A6B37
:102A900012F4007F03D0A26B42F00802A26340F25E
:102AA000FF729A632268D36B23F44E7323F0020300
:102AB000D363236B13F0800F46D0236C6BB3284A8B
:102AC0001A65206CFDF737FE00283FF47FAF206CBD
:102AD000FFF7FDFE7AE74FF480429A63056A05F13D
:102AE00020062946206800F0AEF80435B542F8D13A
:102AF000236A2033236269E74FF400429A63866AAF
:102B0000351F1C36206800F09BF845F8040FB542CD
:102B1000F8D1A36A2033A36258E7E36B5BB1114A93
:102B20001A65E06BFDF707FE00283FF44FAFE06B3E
:102B3000FFF7F2FE4AE70023A363012384F8343051
:102B4000204603F026FB41E7236B13F0080F3FF408
:102B50003DAF012384F834302046FFF7E0FB35E732
:102B6000CF28000819290008134B1B68134AA2FB41
:102B700003235A0A41F2883303FB02F3CBB1426BC1
:102B8000013B12F0450FF9D0436B13F0040F08D14D
:102B9000436B13F0010F08D140F2FF538363002011
:102BA00070470423836318467047012383631846E4
:102BB00070474FF00040704720010020D34D621055
:102BC0000F4B1B680F4AA2FB03235A0A41F28833BA
:102BD00003FB02F38BB1426B013B12F0450FF9D0BE
:102BE000436B13F0040F04D140F2FF5383630020C2
:102BF000704704238363184670474FF000407047C6
:102C000020010020D34D621084B010B402AC84E8DF
:102C10000E0042680B4603990B4304990B43059938
:102C20000B4306990B4307990B4322F4FD4222F014
:102C30007F021343436000205DF8044B04B07047EB
:102C4000D0F8800070470B68C0F8803000207047D3
:102C50000323036000207047006800F00300704702
:102C600010B40B688360C2684B688C682343CC68DF
:102C7000234309690B4322F47F6222F00F021343BE
:102C8000C36000205DF8044B704782B000230193BD
:102C9000143001440191019B186802B07047000094
:102CA00010B54F4B1B684F4CA4FB03435B0A02FB60
:102CB00003F2002A5ED0436B013A13F0450FF8D0BF
:102CC000436B13F0040F07D1436B13F0010F07D0D0
:102CD0000123836318464FE00423836318464BE0C7
:102CE0000369DBB2994201D0012045E040F2FF5375
:102CF00083630021FFF7C9FF3B4B0340EBB3002880
:102D00003DDB10F0804F3DD110F0005F3CD110F062
:102D1000805F3BD110F0006F3BD110F0806F3BD152
:102D200010F0807F3BD110F4000F3BD110F4800FE6
:102D30003BD110F4001F3BD110F4801F3BD110F4A5
:102D4000802F3BD110F4003F3BD110F4803F3BD1AA
:102D500010F4004F3BD110F4804F3BD110F4005FD2
:102D60003BD100F00800002814BF4FF400004FF4DE
:102D7000803001E04FF0004010BD0020FCE74FF034
:102D80000070F9E74020F7E78020F5E74FF4807006
:102D9000F2E74FF40070EFE74FF48060ECE74FF498
:102DA0000060E9E74FF48050E6E74FF40050E3E7B6
:102DB0004FF48040E0E74FF40040DDE74FF400308F
:102DC000DAE74FF48020D7E74FF40020D4E74FF440
:102DD0008010D1E74FF40010CEE74FF48000CBE72E
:102DE00020010020D34D621008E0FFFD10B40B68F5
:102DF00043624B688362C26A8B68CC6823430C6968
:102E0000234349690B4322F0F7021343C3620020B6
:102E10005DF8044B704730B587B00546019110242A
:102E2000029440230393002304934FF4806305939B
:102E300001A9FFF715FF41F2883221462846FFF726
:102E40002FFF07B030BD30B587B005460191112482
:102E5000029440230393002304934FF4806305936B
:102E600001A9FFF7FDFE41F2883221462846FFF70F
:102E700017FF07B030BD30B587B005460191122469
:102E8000029440230393002304934FF4806305933B
:102E900001A9FFF7E5FE41F2883221462846FFF7F7
:102EA000FFFE07B030BD30B587B00546019118244C
:102EB000029440230393002304934FF4806305930B
:102EC00001A9FFF7CDFE41F2883221462846FFF7DF
:102ED000E7FE07B030BD30B587B005460191192433
:102EE000029440230393002304934FF480630593DB
:102EF00001A9FFF7B5FE41F2883221462846FFF7C7
:102F0000CFFE07B030BD000030B587B005460023C6
:102F100001930C2402944022039204934FF48063A3
:102F2000059301A9FFF79CFE034A21462846FFF7B7
:102F3000B7FE07B030BD00BF00E1F50530B587B082
:102F4000054601920724029440230393002304932F
:102F50004FF48063059301A9FFF782FE41F28832A6
:102F600021462846FFF79CFE07B030BD10B586B05D
:102F70000446002301930293039304934FF4806368
:102F8000059301A9FFF76CFE0C4B1B680C4AA2FBD2
:102F900003235A0A41F2883303FB02F34BB1626BFD
:102FA000013B12F0800FF9D040F2FF53A3630020E1
:102FB00001E04FF0004006B010BD00BF200100202E
:102FC000D34D621010B586B004464FF4D57301930B
:102FD0000823029340230393002304934FF4806358
:102FE000059301A9FFF73CFE124B1B68124AA2FB96
:102FF00003235A0A41F2883303FB02F3A3B1626B45
:10300000013B12F0450FF9D0636B13F0040F07D1A9
:10301000636B13F0400F0BD04023A363002005E047
:103020004023A363042001E04FF0004006B010BD30
:103030000020FBE720010020D34D621030B587B09F
:1030400005460191372402944023039300230493FF
:103050004FF48063059301A9FFF702FE41F2883225
:1030600021462846FFF71CFE07B030BD10B586B0DC
:10307000044641F0004141F480110191292302935B
:1030800040230393002304934FF48063059301A925
:10309000FFF7E6FD2046FFF793FD06B010BD30B503
:1030A00087B0054601910624029440230393002330
:1030B00004934FF48063059301A9FFF7D1FD41F21A
:1030C000883221462846FFF7EBFD07B030BD30B50A
:1030D00087B00546002301933324029440220392D3
:1030E00004934FF48063059301A9FFF7B9FD41F202
:1030F000883221462846FFF7D3FD07B030BD10B512
:1031000086B004460023019302220292C022039259
:1031100004934FF48063059301A9FFF7A1FD2046B6
:10312000FFF722FD06B010BD10B586B00446019130
:1031300009230293C0230393002304934FF4806375
:10314000059301A9FFF78CFD2046FFF70DFD06B0A2
:1031500010BD000030B587B004460D460023019332
:10316000032202924022039204934FF4806305935A
:1031700001A9FFF775FD224B1B68224AA2FB03231E
:103180005A0A41F2883303FB02F393B3626B013BAB
:1031900012F0450FF9D0636B13F0040F06D1636B87
:1031A00013F0010F05D00120A06324E00420A063E8
:1031B00021E02369DBB2032B01D001201BE040F2A8
:1031C000FF53A36300212046FFF75FFD10F4604F1B
:1031D0000BD010F4804F10D100F40040002814BF31
:1031E0004FF480504FF4803005E0000C2880002020
:1031F00001E04FF0004007B030BD4FF40050FAE757
:1032000020010020D34D621030B587B005460191F2
:103210000D24029440230393002304934FF480630E
:10322000059301A9FFF71CFD41F28832214628468B
:10323000FFF736FD07B030BD84B010B5044603A8D3
:1032400080E80E00089B012B20D1A36B23F4803370
:10325000A363E36823F4840323F04003E360E3689B
:1032600023F44013E3600F9B012B0AD0204600F0AB
:103270009DFC069B012B14D00020BDE8104004B03B
:103280007047E36843F48013E360EFE7E36843F0DB
:103290004003E360204600F089FC4FF48033A363D1
:1032A000E7E7A36843F00603A360A36843F02003A5
:1032B000A360E1E7836843F0010383600020704767
:1032C000836823F0010383600020704708B5C3685A
:1032D00023F0C043C360012909D019B9C36843F082
:1032E0008043C3603220FDF79BF9002008BDC3680E
:1032F00043F00053C360F5E784B02DE9F84304467A
:1033000009A880E80E0088460C9F139EB6B9A36BEF
:1033100043F40013A3630023C4F8003E04F50065E2
:10332000D4F80038C4F800380E9B012B10D10B9B49
:103330004BB90021204600F0ADF80DE0A36B43F43B
:103340000023A363E7E70121204600F0A3F803E090
:103350000321204600F09EF81021204600F078F866
:10336000204600F087F800232B616B614FF0FF329D
:10337000AA61EB61B8F1000F2FD004F510630022B1
:1033800094464FF090494FF0FF0E18680028B4BFE4
:10339000C3F80090C3F800C0C3F810C0C3F808E039
:1033A000013220339045F0D104F5306300218E4680
:1033B0004FF090494FF0FF08D3F800C0BCF1000F68
:1033C000B4BFC3F80090C3F800E0C3F810E0C3F83E
:1033D0000880013120339142EED12B6923F48073B0
:1033E0002B61012F1AD00023A3616FF0804363612A
:1033F0001FB9A36943F01003A361A269124B1343E1
:10340000A3610F9B1BB1A36943F00803A361012EC5
:1034100013D00020BDE8F84304B070470B4B2B637A
:103420002B6B43F4803343F003032B632B6B00239C
:10343000A3616FF080436361DFE7A36943F08043DA
:1034400043F00403A361E4E700383C8000018000FE
:10345000890141F020010161054B026912F0200F42
:1034600003D0013BF9D1032070470020704700BF13
:10347000400D030010230361054B026912F0100F89
:1034800003D0013BF9D1032070470020704700BFF3
:10349000400D0300D0F800381943C0F80018002090
:1034A0007047D0F8083800F5006013F0060F11D00F
:1034B000836803F00603022B0ED0836803F0060333
:1034C000062B0BD0836803F00603042B14BF0020E7
:1034D0000220704700207047032070470320704788
:1034E00030B44B78012B20D0D0F81C480D784FF425
:1034F0008033AB402343C0F81C380A78520100F5F2
:103500003060135813F4004F0CD114588B68C3F378
:103510000A0343F0805343F40043C97843EA8143EC
:1035200023431350002030BC7047D0F81C480D785E
:10353000AB409BB22343C0F81C380C78620100F505
:103540001060135813F4004FECD115588B68C3F377
:103550000A0343F0805343F40043C97843EA8143AC
:1035600043EA84532B431350DCE7000038B54B7813
:10357000012B1DD000F530640B785B011A5922F441
:1035800000421A510B785B014FF000621A510B7820
:103590005B014FF080421A510B7804EB4314254B2A
:1035A000A26812F0100F32D0013BF9D103203FE0A6
:1035B00000F510640B785B011A5922F400421A518D
:1035C0000B785B014FF000621A510B785B014FF0F2
:1035D00080421A510B7804EB4314164BA26812F088
:1035E000804F03D0013BF9D1032021E00D46044672
:1035F0001021FFF72DFFD4F81C28297801238B40D8
:103600009BB222EA0303C4F81C38002010E0D0F873
:10361000043843F48063C0F80438D0F81C380978C3
:103620004FF480328A4023EA0203C0F81C3800209D
:1036300038BD00BF400D0300F0B583B04B78012BBF
:1036400035D000F530630D7803EB45152C69E40C9B
:10365000E4042C610D7803EB45152C6924F0FF542C
:1036600024F4C0142C614C69002C40F0B8800D7813
:1036700003EB45152E698C68C4F3120434432C61A6
:103680000C7803EB4414256945F400252561012AD3
:1036900000F0C080CA78012A00F0C2800A78520186
:1036A000D15841F00441D150002003B0F0BD4B6926
:1036B00073BB00F510630D7803EB45152C6924F0FE
:1036C000FF5424F4C0142C610C7803EB44142569D6
:1036D00045F4002525610C7803EB44131C69E40CC8
:1036E000E4041C61012A5CD0CB78012B3FD1D0F8D7
:1036F000083813F4807F0B784FEA431300F5106508
:103700005C590CBF44F0005444F080545C5152E0CA
:1037100000F510640D7804EB45152B69DB0CDB0418
:103720002B610D7804EB45152B6923F0FF5323F42F
:10373000C0132B610E7804EB461637698D684B6910
:103740002B44013BB3FBF5F33D4D05EAC3433B433B
:1037500033610D7804EB45152E694B69C3F31203F1
:1037600033432B61CB78012B0CD0012A19D04B6944
:103770000BB3D0F834580E780123B3402B43C0F874
:10378000343815E00B7804EB43131D6925F0C04570
:103790001D610B7804EB4314236943F0005323614C
:1037A000A0E70C7800F5106303EB44130C695C612F
:1037B000CB78012B9BD00B785B0100F510655C5931
:1037C00044F004445C51CB78012B7FF46DAF144678
:1037D0008B8A0A78C968009400F0CEF864E78D6897
:1037E0002C44013CB4FBF5F40E7803EB4616376924
:1037F000134D05EAC4453D4335610E7803EB46168B
:103800003769A4B28D6805FB04F4C4F312043C4389
:1038100034613CE70A7803EB4212CC68546139E723
:10382000D0F8082812F4807F0A784FEA4212D05864
:103830000CBF40F0005040F08050D0502EE700BF49
:103840000000F81F30B44B78012B30D000F5306009
:103850000C7800EB44142369DB0CDB0423610C7847
:1038600000EB4414236923F0FF5323F4C0132361B6
:103870004B690BB18B684B610B7800EB43131C69F0
:1038800044F400241C610C7800EB441425698B6817
:10389000C3F312032B432361012A67D00B785B012A
:1038A0001A5842F004421A50002030BC70474B694D
:1038B00073BB00F510630D7803EB45152C6924F0FC
:1038C000FF5424F4C0142C610C7803EB44142569D4
:1038D00045F4002525610C7803EB44131C69E40CC6
:1038E000E4041C6100F510650B785B015C5944F041
:1038F00004445C51012A33D04B69002BD4D0D0F85A
:103900003428097801238B401343C0F83438CBE7BF
:1039100000F510630D7803EB45152C69E40CE40405
:103920002C610D7803EB45152C6924F0FF5424F429
:10393000C0142C618C684D69A54288BF4C610C781D
:1039400003EB4414256945F4002525610C7803EB4D
:1039500044131D694C69C4F312042C431C61C1E774
:103960000B7805EB43150B696B619DE70B7800EB5A
:103970004313CA685A6191E710B49DF804406CB9CA
:10398000DC1CA4080AD000F5805000EB02320023B2
:1039900051F8040B106001339C42F9D100205DF80E
:1039A000044B7047033292080ED070B40C460023CB
:1039B00000F58056356844F8045B01339A42F9D12A
:1039C00001EB830070BC7047084670474B78012BB1
:1039D00012D000F530600B785B011A58002A03DB27
:1039E0001A5822F080421A500B785B011A5842F4A0
:1039F00000121A500020704700F510600B785B0130
:103A00001A58002A03DB1A5822F080421A500B7809
:103A10005B011A5842F400121A50EBE74B78012B65
:103A20000ED000F530600B785B011A5822F40012BA
:103A30001A50CB78023BDBB2012B15D9002070471E
:103A400000F510600B785B011A5822F400121A502E
:103A5000CB78023BDBB2012BF0D80B785B011A5814
:103A600042F080521A50E9E70B785B011A5842F095
:103A700080521A50E2E7D0F8003823F4FE63C0F811
:103A80000038D0F80038090101F4FE611943C0F88C
:103A900000180020704708B5D0F8043823F002035E
:103AA000C0F804380320FCF7BBFD002008BD08B5B2
:103AB000D0F8043843F00203C0F804380320FCF7C0
:103AC000AFFD002008BD4269806910407047D0F802
:103AD000183800F50060C0691840000C7047D0F835
:103AE000183800F50060C069184080B2704700F5D2
:103AF000306303EB41118A6800F5006040691040B3
:103B0000704710B4D0F81048D0F8343800EB4110AA
:103B100000F510608068CB40DB01DBB22343184026
:103B20005DF8044B7047406900F001007047D0F821
:103B3000003923F4FF6323F00703C0F8003900F5D0
:103B400000639A6802F00602042A05D05A6842F41B
:103B500080725A6000207047D0F8002942F00302BA
:103B6000C0F80029F2E710B40024C0F8104BD0F8D8
:103B7000104B44F40024C0F8104BD0F8104B44F024
:103B80001804C0F8104BD0F8104B44F0C044C0F8F3
:103B9000104B012903D000205DF8044B7047C0F89A
:103BA000142B4FF08023C0F8003BF4E70B4B026965
:103BB000002A03DB013BFAD103207047036943F07D
:103BC00001030361054B026912F0010F03D0013BB1
:103BD000F9D1032070470020704700BF400D03005B
:103BE00090F82520806A01FB0200704710B514464A
:103BF00003685B689847204410BD704710B50446C1
:103C000006F0A1FA204610BD84B0F0B4044605AD1C
:103C100085E80E001D4B03601D4B036143F61073D6
:103C2000838200278775C775C76100F120060FCD15
:103C30000FC62B683360BDF82830A380677294F8F4
:103C40002510C800A08194F82450236ADA8D92FBD5
:103C5000F5F26281BDF82C3093FBF5F3E381121A83
:103C600002EBD2725210E28094F82620A3EBC2033A
:103C700003EBD3735B10237202FB01F36383DB005E
:103C800023832046F0BC04B0704700BFF0BB00089F
:103C900004BC000810B50446028B0021806A06F0BF
:103CA000A6FA638B43B10023A18AE26A22F81310BB
:103CB0000133628B9A42F7DC236BA28A1A7010BD23
:103CC000818270472DE9F04F8BB0029017461D4658
:103CD0000093BDF850809DF854209DF8580001F0E5
:103CE0000704C4F10803DBB22AB915F8082008F16B
:103CF00001081FFA88F830B9009810F8080008F198
:103D000001081FFA88F812F0070C4FEAD20214BF1C
:103D100001324FF0080C002800F09D80CE082546A7
:103D20000CEB04010C46FF21019441FA04FC5FFAFC
:103D30008CFE1C4601FA03F3012A18BF4FF0000E57
:103D400043EA0E035BB203934FFA8CF30993019B92
:103D5000083B049319414BB20893431E791C51FA56
:103D600083F39BB20593009B0793531E069316E0C3
:103D7000984663E0049B002B05DD9AF80030089A12
:103D800013408AF800309AF80030A1401943C9B2B4
:103D90008AF800100137BFB2059B9F425BD00298A2
:103DA00003685B6839469847821910F806C05FFAC5
:103DB0008CFC835D03990B40835508F101039BB292
:103DC000009918F8011010F806E041FA05F94EEADA
:103DD000090E5FFA8EFE00F806E002F1010A06986D
:103DE00003EB000B1FFA8BFB5B45C1D2C8F57F4884
:103DF00008F1FE08D8441FFA88F808F10209914436
:103E0000079800EB030E0EF1FF3EAEEB020E50469C
:103E100090F800C05FFA8CFCA140C9B2017010F8A4
:103E20000E10037841FA05F21343DBB200F8013BB0
:103E30004845EDD108F10108C244D846019B072B43
:103E400098DC1AF8013C099A02EA0C0C43EA0C0CC3
:103E50000AF801CC8EE70BB0BDE8F08F70B584B0E6
:103E600015461A464C7802940B7801938E789DF88B
:103E700020309B1BDBB213FB04F303339BB2009394
:103E80000B462946FFF71EFF04B070BD70B582B027
:103E900004460D4616460093D300CA000169FFF799
:103EA000DDFF94F8252006FB0252E36ABDF81810E6
:103EB00023F8121002B070BDC37D90F82510827DEA
:103EC00001FB0323C16A31F8132052BA21F81320F1
:103ED000704770B504460D461646837D8B4214D05C
:103EE00094F82530AB429CBF03F1FF35EDB294F856
:103EF0002630B3429CBF03F1FF36F6B2637A43B972
:103F0000A575E675637A43B970BDC37D9342E7D169
:103F1000FAE72046FFF7D0FFF2E72046FFF7CCFF95
:103F2000F2E708B5817DC27D90F82530013B9942CA
:103F300008DB90F82630013B9A4205DA0132D2B212
:103F4000002101E00131C9B2FFF7C3FF08BD2DE92F
:103F5000F04182B0054616460D292AD8DFE801F067
:103F60002629292929292929132907292924C27D14
:103F700090F82630013B9A4218DA0132D2B2002181
:103F8000FFF7A7FF12E0817D81B1C27D0139009664
:103F90002023C9B2FFF77AFFA97D0139EA7DC9B2B2
:103FA0002846FFF796FF01E00023837502B0BDE8C5
:103FB000F0810C46877D90F81780FFF7B2FF0096DE
:103FC0002346424639462846FFF760FFEEE738B5FC
:103FD00003695BB104460D46097839B1A28A2046CF
:103FE000FFF7B5FF15F8011F0029F7D138BD38B527
:103FF00004461D46FFF76DFF29462046FFF7E7FF01
:1040000038BD70B504460E4615461046FCF760FAFA
:1040100094F82510091A2B463246C1F34701204671
:10402000FFF7E5FF70BD08B5437A03B108BD012372
:104030004372FFF741FFF9E708B5437A03B908BDBA
:1040400000234372FFF738FFF9E7000010B400685F
:1040500051F8043B4FEA301000F0080423FA04F44E
:1040600002F8014B4FEAF07000F0080423FA04F460
:1040700002F8014B4FEAF07000F0080423FA04F450
:1040800002F8014B4FEAF07000F0080423FA04F440
:1040900002F8014B4FEAF07000F0080423FA04F430
:1040A00002F8014B4FEAF07000F0080423FA04F420
:1040B00002F8014B4FEAF07000F0080423FA04F410
:1040C00002F8014B4FEAF07000F0080423FA04F400
:1040D00002F8014B4FEA33434FEAF03000F0080496
:1040E00023FA04F402F8014B4FEAF07000F00804E0
:1040F00023FA04F402F8014B4FEAF07000F00804D0
:1041000023FA04F402F8014B4FEAF07000F00804BF
:1041100023FA04F402F8014B4FEAF07000F00804AF
:1041200023FA04F402F8014B4FEAF07000F008049F
:1041300023FA04F402F8014B4FEAF07000F008048F
:1041400023FA04F402F8014B4FEAF07000F008047F
:1041500023FA04F402F8014B51F8043B4FEAF03023
:1041600000F0080423FA04F402F8014B4FEAF0705F
:1041700000F0080423FA04F402F8014B4FEAF0704F
:1041800000F0080423FA04F402F8014B4FEAF0703F
:1041900000F0080423FA04F402F8014B4FEAF0702F
:1041A00000F0080423FA04F402F8014B4FEAF0701F
:1041B00000F0080423FA04F402F8014B4FEAF0700F
:1041C00000F0080423FA04F402F8014B4FEAF070FF
:1041D00000F0080423FA04F402F8014B4FEA3343D9
:1041E0004FEAF03000F0080423FA04F402F8014B1F
:1041F0004FEAF07000F0080423FA04F402F8014BCF
:104200004FEAF07000F0080423FA04F402F8014BBE
:104210004FEAF07000F0080423FA04F402F8014BAE
:104220004FEAF07000F0080423FA04F402F8014B9E
:104230004FEAF07000F0080423FA04F402F8014B8E
:104240004FEAF07000F0080423FA04F402F8014B7E
:104250004FEAF07000F0080423FA04F402F8014B6E
:1042600010BC7047427F006A01FB0200704710B526
:10427000144603685B68984700EB440010BD704724
:1042800010B5044605F05FFF204610BD84B030B481
:1042900003AD85E80E00134B036000234361BDF8B6
:1042A00020308380427FD1008181057F8369DA8D50
:1042B00092FBF5F24281BDF8243093FBF5F3C38104
:1042C000521A02EBD2725210C280827FA3EBC20359
:1042D00003EBD3735B1003724FF48033036130BC84
:1042E00004B0704708C40008704700207047000001
:1042F000064B00221A805A809A80DA801A815A81ED
:104300009A81DA815A8280221A747047580F0020ED
:1043100008B5024B1860FFF7EBFF08BD540F0020F3
:104320000023024A1370024A13707047F0E0002025
:10433000F1E00020104B1A78104B19780631104B21
:1043400083FB01C30B449B10C3EBC303CB1A9A42FC
:104350000FD00C4B43F822000132094B83FB0213B0
:1043600013449B10C3EBC303D31A034A13700020FA
:1043700070474FF0FF307047F1E00020F0E0002080
:1043800093244992D4E000200D4B1B780D4A1278FB
:104390009A4211D00C4A52F82330036008490A7837
:1043A00001320A4B83FB020313449B10C3EBC3038C
:1043B000D31A0B70002070474FF0FF30704700BFDA
:1043C000F0E00020F1E00020D4E0002093244992A6
:1043D00030B587B000240094144B1A6B42F00202EF
:1043E0001A631B6B03F002030093009B4FF480439E
:1043F0000193029403940E4D01A92846FCF7AEF9EF
:104400004FF4005301930294039401A92846FCF74A
:10441000A5F9084B1C70FFF783FF074B1C60074B87
:104420001C70074B1C7007B030BD00BF0038024045
:1044300000040240810F00207C0F0020780F002034
:10444000790F002000B583B001A8FFF79DFFB0F100
:10445000FF3F19D00198C3B2122B08D100F47F435B
:10446000B3F5704318BF0123094A137009E0592BB3
:1044700007D100F47F43B3F5704318BF0123054A09
:10448000137003B05DF804FB4FF0FF30F9E700BF95
:10449000780F0020790F002008B50346A0F10E0226
:1044A000582A00F28D80DFE812F004018B008B00A7
:1044B0008B008B008B008B007300F7018B008B004F
:1044C0008B008500770025027F0001028B008B00A6
:1044D000590081003E015B000D0207028B008B003A
:1044E00089007D005D007900750013028B008B0050
:1044F0006D003C0161005F00830019028B008B009E
:104500008B006B0065007B001F02CE008B008B00D0
:10451000DC00670063006F00F101D5008B008B00A9
:10452000EE00F900690011017100E3008B008B00BF
:104530008B000A018B00230131018B008B008B0063
:104540008B008B002A018B001C018B008B008B00E1
:104550008B008B008B008B008B0087006320E3E0D7
:104560006520E1E06620DFE06720DDE06820DBE039
:104570006920D9E06A20D7E06B20D5E06C20D3E039
:104580006D20D1E06E20CFE06F20CDE07020CBE039
:104590007120C9E07220C7E07320C5E07420C3E039
:1045A0007520C1E07620BFE07720BDE07820BBE039
:1045B0007920B9E07A20B7E00820B5E02020B3E008
:1045C000B84A12780020002A40F0B8800020B0E0FD
:1045D000292029E0212027E0402025E0232023E096
:1045E000242021E025201FE05E201DE026201BE086
:1045F0002A2019E0282017E03C2015E05F2013E076
:104600003E2011E03F200FE022200DE03A200BE099
:104610007C2009E07B2007E07D2005E02B2003E0E3
:10462000612006F099F8C0B208BD7E20FCE75F204B
:10463000FAE73E20F8E73F20F6E77E20F4E73A204D
:10464000F2E72B20F0E7974B1B78002B00F09181CD
:104650002A20E9E7934B1B78002B00F0918128205A
:10466000E2E7904B1B78002B00F091813C20DBE7C8
:104670008C4B1B78002BDAD18B4B1B78002B14BF93
:104680005F202D20D0E7874B1B78002BD1D1864BA4
:104690001B78002B14BF3E202E20C5E7814B1B78D2
:1046A000002BC8D1804B1B78002B14BF3F202F203C
:1046B000BAE77C4A1278002ABFD1602039E0794BF2
:1046C0001B78002B00F06A812220ADE7754B1B7828
:1046D000002BB4D1744B1B78002B14BF3A203B2025
:1046E000A2E7704B1B78002B00F05F817C209BE7DA
:1046F0006C4B1B78002B00F05F817B2094E7694BAB
:104700001B78002B00F05F817D208DE7654B1B78C7
:10471000002B96D1644B1B78002B14BF2B203D201F
:1047200082E7622000E064205E4A1278002A7FF46B
:1047300078AF5D4A1278002A3FF476AF0E3B4F2BDC
:104740003FF66FAF01A252F823F000BF2B460008DE
:104750002346000823460008234600082346000895
:10476000234600082346000823460008D5450008D4
:104770002346000823460008234600082346000875
:10478000234600082346000823460008D9450008B0
:104790002346000823460008234600082346000855
:1047A0002346000823460008E1450008DD450008CF
:1047B0002346000823460008234600082346000835
:1047C000234600082346000823460008E545000864
:1047D0002346000823460008234600082346000815
:1047E000234600082346000823460008E945000840
:1047F00023460008234600082346000823460008F5
:104800002346000823460008ED450008F14500084E
:104810002346000823460008F945000823460008FF
:104820002346000823460008D1450008F545000846
:1048300023460008234600080146000805460008F4
:10484000234600080D46000823460008FD450008E1
:1048500023460008234600082346000809460008AE
:1048600023460008154600081D4600082346000898
:104870002346000823460008234600082346000874
:10488000194600082346000811460008054B1B780E
:10489000002B36D02920C7E6024B1B78002B37D0DF
:1048A0002120C1E6780F0020790F0020494B1B78AA
:1048B000002B34D04020B7E6464B1B78002B35D078
:1048C0002320B1E6434B1B78002B36D02420ABE6E7
:1048D000404B1B78002B37D02520A5E63D4B1B789D
:1048E000002B38D05E209FE63A4B1B78002B39D046
:1048F000262099E6374A1278002A7FF491AE61208B
:1049000017E7354B1B78002B14BF292030208BE68E
:10491000314B1B78002B14BF2120312084E62E4B15
:104920001B78002B14BF402032207DE62A4B1B78D9
:10493000002B14BF2320332076E6274B1B78002B57
:1049400014BF242034206FE6234B1B78002B14BFA8
:104950002520352068E6204B1B78002B14BF5E20F5
:10496000362061E61C4B1B78002B14BF2620372015
:104970005AE6194B1B78002B14BF2A20382053E627
:10498000154B1B78002B14BF282039204CE6124B06
:104990001B78002B14BF3C202C2045E60E4B1B78C7
:1049A000002B14BF222027203EE60B4B1B78002B48
:1049B00014BF7C205C2037E6074B1B78002B14BF0C
:1049C0007B205B2030E6044B1B78002B14BF7D203E
:1049D0005D2029E6780F0020790F00202DE9F041B5
:1049E0000D46461E104C671C04F5807816F8010F22
:1049F00005F0A5FE04F8010F4445F7D1013D0B4C2D
:104A000007F5007715F8010F05F099FE04F8010F7E
:104A1000BC42F7D106484FF480720146A0F2011063
:104A200005F052FEBDE8F081EF4F0020F05000206D
:104A3000F150002010B4094B1C78094B83FB00C3D4
:104A400003449B1004FB03340C70C3EBC303C31A71
:104A5000013313705DF8044B704700BF6E010020F6
:104A60009324499210B5084C0F220146204605F0C8
:104A70003DFE0023A3732E21204605F04CFE08B115
:104A800000220270004810BDF04F002008B5024817
:104A9000FFF72AFC08BD00BFBC0F0020294BB3F96B
:104AA000003003B9704730B5ADF5177D0446264B8D
:104AB00018800DF256220DF25721FFF7BBFF234B52
:104AC0009DF856229DF857122148FFF790FA0122CF
:104AD0002049214803F00AFE10B10DF5177D30BDC5
:104AE0001E4B186800EB04241D4D4FF480722146C4
:104AF000284605F0FBFD2E21284605F00CFE034656
:104B000040B1184A1068186001222946684603F02F
:104B100015FE58B101222146684603F00FFE58B138
:104B200000220C490C4803F0E1FDD6E7FFF7AEFF89
:104B3000684604F03EF8F3E7FFF7A8FF684604F084
:104B400038F8EDE7820F0020860F00201CC4000813
:104B5000880F0020FCE0002050E3002070010020BE
:104B6000F04F002020C4000810B5ADF5147D0446B8
:104B700001220B490B4803F0B9FD10B10DF5147D6E
:104B800010BD01222146684603F0D8FD684604F0B6
:104B900010F800220249034803F0A8FDEEE700BF29
:104BA000FCE0002050E3002010B5ADF5147D044674
:104BB00001221349134803F099FD18B100200DF5A7
:104BC000147D10BD06222146684603F0B7FD082873
:104BD00006D080B100220A490A4803F087FDEDE7BC
:104BE000204604F098F80028F4D1062221466846B1
:104BF00003F0A4FDEDE7684603F0DBFFEAE700BF42
:104C0000FCE0002050E3002010B5194C43F6107171
:104C10002046FFF755F82046FFF73CF8154800F00E
:104C200083FA01221449154803F060FD08B1002001
:104C300010BD00221049114803F058FD104B02220C
:104C400000212046FFF7D3F9032200212046FFF779
:104C500040F92046FFF7E7F94FF480720021094B35
:104C6000186805F0C4FA0120074B1870E0E700BF90
:104C7000880F00209CC40008FCE0002050E30020C6
:104C8000BCC4000874010020850F0020F8B5504B0B
:104C90001C780CB92046F8BDFFF7D4FB034600286A
:104CA000F8D000F47F42B2F5704FF3D0001200F458
:104CB0007F40DBB21843474B9D7D662850D027DDEF
:104CC00076287ED04EF25A03984223D1414E304688
:104CD000FFF7B2F9404B052200213046FFF787F974
:104CE0003E4F3E683046FBF7F3FB024631183C4B23
:104CF0001868B0501B790B713868FFF755FF002812
:104D000045D00024324B1C70204600F033FBC1E735
:104D10005A28DBD0FFF7C0FB2E4B9B7D314A12781F
:104D20009A42B7D90028B5D05C28B3D0A0F12202AE
:104D3000D2B21D2A05D82C4921FA02F212F0010F35
:104D4000A8D100F0BF023C2AA4D028490870234A09
:104D50001268D05400234B701E48FFF738F999E7CA
:104D6000002D97D01B4E691E214BF27DC9B23046F3
:104D7000FFF73DF9B17D0139F27DC9B23046FFF749
:104D8000A8F8B37D154A12680021D15482E7114E6C
:104D90004FF444713046FEF793FF164B0522002175
:104DA0003046FFF724F943F610713046FEF788FFCE
:104DB000032229463046FFF78CF83046FFF733F9D7
:104DC00068E70024024B1C70204600F0D3FA61E72C
:104DD000850F0020880F00202CC4000874010020DB
:104DE00048C400086E01002001210031F04F00206E
:104DF00028C4000850C400082DE9F047E0B000F0D6
:104E00008BFA594C43F610712046FEF759FF2046A5
:104E1000FEF740FF554B9B6A10221A70544800F071
:104E200083F901225349544803F060FC28B14FF044
:104E30000009484660B0BDE8F087504B00221A8058
:104E40004F4B504A02A94AA803F054FF30BB9DF8CB
:104E50002230002B7AD000244B4E484D30684FF45E
:104E600080720DF12201204405F040FC2B880133B3
:104E70002B8002A94AA803F022FF002869D1B4F5CB
:104E8000A05F08D004F580749DF82230002BE5D196
:104E90004FF0010904E04FF0010901E04FF0000973
:104EA000364BB3F90010002956DC0124DFF8EC8002
:104EB000364F2D4EE5B243462A4639783046FFF745
:104EC00096F839784900013143462A46C9B230463E
:104ED000FFF78DF80134082CECD1284BB3F90030E2
:104EE000002B22DD0025DFF8A0801F4F234E0DF19F
:104EF00006020DF10701E8B2FFF79CFD9DF807409F
:104F00000134E4B29DF806A0D8F8000000EB0520BB
:104F1000FFF7A8FD0346524621463846FFF767F8DB
:104F20000135B6F90030AB42E1DC194B1878FFF7D8
:104F3000B5FD00220F49104803F0D8FBB9F1000F6E
:104F40003FF477AF134B01221A7072E74FF001095B
:104F5000A6E74FF00009A3E70F4B4FF480720A4811
:104F6000006805F02DFAA0E7880F0020BC0F002094
:104F700064C40008FCE0002050E30020820F002001
:104F80008CC4000894C40008700100206E01002049
:104F9000860F0020840F0020DD49000898C4000817
:104FA00010B582B03F4B1C7814B9204602B010BD3A
:104FB000FFF748FA03460028F7D000F47F42B2F525
:104FC000704FF2D1384AB2F900001A1202F47F424F
:104FD000DBB213434EF26B0293424AD024DD4EF211
:104FE000740293424BD04EF27502934231D04EF28E
:104FF0007202934233D0C0B22B4BB3F900309842C7
:10500000D3D00DF106020DF10701FFF713FD274B79
:105010009DF806209DF807102548FEF7E8FF224B73
:105020001878FFF73BFDC0E7762B33D04EF25A02DB
:10503000934201D05A2BDED11E4B1B6803EB00209C
:10504000FFF792FD0024174B1C70204600F092F9E8
:10505000ABE70028CFDD431E134A1380CBE7164B86
:10506000B3F90030013B9842C5DA431C0E4A138065
:10507000C1E70628BFDDC31F0B4A1380BBE700F161
:1050800008030D4AB2F900209342B4DCC31D064A5E
:105090001380B0E70024034B1C70012000F06AF974
:1050A00083E700BF840F0020860F002028C400087B
:1050B000880F002070010020820F002008B500F04A
:1050C00063FE034B186800F00DFF04F0D9FD08BD26
:1050D000B001002008B50648FEF7DCFD0548FFF7E3
:1050E00003F9054800F0C2FF00F0E4FE08BD00BF70
:1050F000880F0020BC0F00207801002038B505463D
:10510000084C4FF444712046FEF7DAFD2A4602218E
:105110002046FEF776FF43F610712046FEF7D0FDDD
:1051200038BD00BF880F002038B50546084C4FF445
:105130007C512046FEF7C4FD2A4600212046FEF79A
:1051400060FF43F610712046FEF7BAFD38BD00BF80
:10515000880F002010B5084C2046FEF76DFF43F67F
:1051600010712046FEF7ACFD2046FEF793FD034B81
:1051700000221A7010BD00BF880F002038E0002008
:1051800010B51D4C2046FEF757FF43F61071204620
:10519000FEF796FD2046FEF77DFD184B00221146D6
:1051A0002046FEF724FF164B012200212046FEF781
:1051B0001EFF144B022200212046FEF718FF124B5F
:1051C000032200212046FEF712FF104B042200218B
:1051D0002046FEF70CFF0E4B052200212046FEF76D
:1051E00006FF0C4B062200212046FEF700FF0A4B6B
:1051F00001221A7010BD00BF880F00208CC5000866
:10520000A4C50008C4C50008E8C50008F4C5000826
:105210000CC6000828C6000838E0002008B5044B7A
:105220001B7813B9FFF7ACFF08BDFFF793FFFBE74F
:1052300038E0002008B5044B1B7813B9FFF78AFF4C
:1052400008BDFFF79DFFFBE738E0002030B58BB0CD
:10525000284B01221A70284C43F610712046FEF7A5
:105260002FFD2046FEF716FD2448FFF75DFF244D75
:10527000002205A92846FCF78CFD002204A9284637
:10528000FCF7B1FD9DF811309DF813201D4D9DF8E0
:10529000161003919DF8151002919DF814100191BC
:1052A0009DF81210009102F5FA621749284605F0A0
:1052B000BFF92A4602212046FEF7A3FEE369053323
:1052C000124A1360124B042200212046FEF78FFE83
:1052D000052200212046FEF7FCFD2046FEF7A3FE36
:1052E0000C4B1B6800221A605A609A60DA601A61DF
:1052F0000BB030BD39E00020880F002000C5000849
:105300008CE50020F04F002024C5000834E0002088
:1053100044C50008A801002008B544F20102034971
:10532000034B186804F058FF08BD00BFEC0F0020C5
:10533000AC01002010B5FFF7EFFF0A4B01221A70F5
:10534000094C43F610712046FEF7BAFC2046FEF7E2
:10535000A1FC064A02212046FEF753FE044B002220
:105360001A7010BD3AE00020880F002074C50008B4
:10537000EC4F002008B530B144F20102034B19682C
:10538000034804F029FFFFF755FF08BDAC010020DA
:10539000EC0F002010B50A4B1C780CB9204610BD4C
:1053A000FFF750F80028F9D000F47F43B3F5704FB1
:1053B000F4D10024024B1C700120FFF7DBFFEDE766
:1053C0003AE00020F0B591B07A4B1C78002C00F048
:1053D000ED80794B9D7DDA69784B1B689A4248D8FD
:1053E000FFF730F80346002800F0E08000F47F4229
:1053F000B2F5704F00F0DA80001200F47F40DBB2AB
:10540000184366287FD069DD762800F0C9804EF207
:105410005A03984264D16848FEF70EFE684B18683C
:1054200004AB039305AB029306AB019307AB009368
:1054300008AB09AA634905F01BF906287CD05E4E2B
:105440004FF444713046FEF73BFC5F4B07220021CE
:105450003046FEF7CCFD43F610713046FEF730FCC7
:10546000052229463046FEF734FD3046FEF7DBFDC7
:105470009CE0564E00220BA93046FCF78AFC002225
:105480000AA93046FCF7AFFC9DF829309DF82B2087
:105490004F4F9DF82E1003919DF82D1002919DF80D
:1054A0002C1001919DF82A10009102F5FA624549ED
:1054B000384605F0BDF8404E3A4602213046FEF728
:1054C000A0FD052229463046FEF703FD3046FEF7D3
:1054D000AAFDF3690533394A136081E75A289AD047
:1054E000FEF7DAFF344B9B7D132B5FD800285DD08D
:1054F00037490870324A1268D05400234B702E4846
:10550000FEF765FD52E02C4B997D00294ED01D46DB
:105510000139304BEA7DC9B22846FEF768FDA97D06
:105520000139EA7DC9B22846FEF7D3FCAB7D244A97
:1055300012680021D15439E0244D2846FCF7C1FA05
:105540000024CDF82E40CDF83240CDF83640CDF8CD
:105550003A40ADF83E40069B8DF82C30059B8DF807
:105560002D30049B8DF82E3022460BA92846FCF7DF
:1055700086FBADF82840099B30338DF82B30089B13
:105580008DF82930079B8DF82A3022460AA9284633
:10559000FCF707FB074B1C702046FFF7EBFE05E00E
:1055A0000024044B1C702046FFF7E4FE204611B097
:1055B000F0BD00BF39E00020880F002034E000205B
:1055C000A801002024C50008E8C400088CE50020DC
:1055D000F04F002028C4000810B5094C43F61071A4
:1055E0002046FEF76DFB2046FEF754FB0548FFF70B
:1055F0009BFD054A05212046FEF703FD10BD00BFB7
:10560000880F0020D0C40008F04F0020F0B585B00E
:105610001C4A114651F80C4B1B4D2888638F248F70
:105620001B1B1B1A9BB2194C2380194F039002932A
:1056300003C98DE803000ECA3846FEF7E5FA154E99
:1056400032461549384604F080FD2A88134B5A60CB
:10565000134B144D228803920022029203F10C0294
:1056600092E803008DE803000ECB2846FEF70EFEFD
:1056700032460D49284604F068FD22880B4B5A60DB
:1056800005B0F0BDB0010020A4010020E80F00200B
:10569000880F002000000020FB3B0008980100203C
:1056A00084010020BC0F00207F4200087801002008
:1056B00008B5FFF703FD08BD08B5FFF70BFDFEF7C2
:1056C00087FE0348FEF724FEFFF75AFD08BD00BF22
:1056D000BC0F002008B5FFF763FC00B108BDFFF761
:1056E000D5FA0028FAD1FFF755FE0028F6D1FFF7CA
:1056F00069FE0028F2D1FEF7F8FD06281CD009DD6E
:1057000009282CD010DD0B2826D07628E6D1FFF70B
:1057100021FDE3E7042817D00BDC0328DED1FEF7D8
:10572000E7FDFFF72DFDD9E70728D7D1FFF754FF95
:10573000D4E7FFF773FDD1E7FFF766FA0028CDD174
:105740000848FFF7DBFCC9E7FFF756FB0028C5D187
:105750000548FFF7D3FCC1E7FFF778FDBEE7FFF789
:10576000E9FDBBE740C600085CC600084A0901F035
:105770001F01012303FA01F140F82210BFF35F8FEC
:10578000BFF36F8F70474B0901F01F01012202FA2E
:1057900001F1203340F82310BFF35F8FBFF36F8F09
:1057A00070474B0901F01F01012202FA01F1603339
:1057B00040F82310BFF35F8FBFF36F8F7047F0B4D3
:1057C0008C0801F00301C900FF238B40DB438A40B2
:1057D00004F1C00100EB8101C03450F8246006EAF6
:1057E00003051543BFF35B8F51E8007FB74204D137
:1057F00041E8005CBCF1000FF6D1BFF35B8FECD148
:10580000BFF36F8FF0BC704710B50B1F0B2B08D880
:1058100001F003019B08012B14D043B1022B1CD0D3
:1058200010BD134B134A1421134800F027F8836965
:10583000C900FF248C4023EA040302FA01F1194352
:105840008161EDE7C369C900FF248C4023EA0403AA
:1058500002FA01F11943C161E2E7036AC900FF24BA
:105860008C4023EA040302FA01F119430162D7E7ED
:105870007CC60008B4C6000898C60008FEE770B4ED
:10588000046800230326324003E049080233202B3A
:105890000AD011F0010FF8D006FA03F524EA050446
:1058A00002FA03F52C43F0E7046070BC704770B453
:1058B000446800230126324003E049080133102BDD
:1058C0000AD011F0010FF8D006FA03F524EA050416
:1058D00002FA03F52C43F0E7446070BC704770B4E3
:1058E000846800230326324003E049080233202B5A
:1058F0000AD011F0010FF8D006FA03F524EA0504E6
:1059000002FA03F52C43F0E7846070BC704770B472
:10591000C46800230326324003E049080233202BE9
:105920000AD011F0010FF8D006FA03F524EA0504B5
:1059300002FA03F52C43F0E7C46070BC7047F0B482
:1059400002F00F02056A446A00230F2603E04908AB
:105950000433202B14D011F0010F06D006FA03F700
:1059600025EA070502FA03F73D4311F4807FEED0E4
:1059700006FA03F724EA070402FA03F73C43E6E7D2
:1059800005624462F0BC704708B501460148FFF764
:10599000EDFE08BD00E100E008B501460148FFF753
:1059A000F2FE08BD00E100E008B501460148FFF73E
:1059B000F8FE08BD00E100E008B50A0102F0F002BF
:1059C00001460248FFF7FBFE08BD00BF00E100E012
:1059D00008B501380F280FD8DFE800F014080E16BC
:1059E0000E0E0E0A0E0E0E0E0E0E0E0C042008BD2C
:1059F0000620FCE70720FAE7044B054A8A21054800
:105A0000FFF73CFF0020F2E70520F0E7CCC60008D6
:105A100000C70008D4C60008CAB2090A04D0012988
:105A200008D0BFF34F8F7047016A012393400B43A7
:105A30000362F6E7416A012393400B434362F0E7B8
:105A4000CBB2090A04D001290AD0BFF34F8F7047A7
:105A5000026A012101FA03F322EA03030362F4E775
:105A6000426A012101FA03F322EA03034362ECE7ED
:105A7000CAB2090A04D0012908D0BFF34F8F70477A
:105A8000016C012393400B430364F6E7416C01234F
:105A900093400B434364F0E7CBB2C1F307410129C4
:105AA0000CD021B1022910D0BFF34F8F7047016B8A
:105AB000012202FA03F30B430363F5E7416B012272
:105AC00002FA03F30B434363EEE7816B012202FA10
:105AD00003F30B438363E7E7D0ED017AF8EE677ACF
